{
  "contractName": "Lottery",
  "abi": [
    {
      "inputs": [],
      "stateMutability": "nonpayable",
      "type": "constructor"
    },
    {
      "anonymous": false,
      "inputs": [
        {
          "indexed": true,
          "internalType": "address",
          "name": "owner",
          "type": "address"
        },
        {
          "indexed": true,
          "internalType": "address",
          "name": "spender",
          "type": "address"
        },
        {
          "indexed": false,
          "internalType": "uint256",
          "name": "value",
          "type": "uint256"
        }
      ],
      "name": "Approval",
      "type": "event"
    },
    {
      "anonymous": false,
      "inputs": [
        {
          "indexed": true,
          "internalType": "address",
          "name": "previousOwner",
          "type": "address"
        },
        {
          "indexed": true,
          "internalType": "address",
          "name": "newOwner",
          "type": "address"
        }
      ],
      "name": "OwnershipTransferred",
      "type": "event"
    },
    {
      "anonymous": false,
      "inputs": [
        {
          "indexed": true,
          "internalType": "address",
          "name": "from",
          "type": "address"
        },
        {
          "indexed": true,
          "internalType": "address",
          "name": "to",
          "type": "address"
        },
        {
          "indexed": false,
          "internalType": "uint256",
          "name": "value",
          "type": "uint256"
        }
      ],
      "name": "Transfer",
      "type": "event"
    },
    {
      "inputs": [],
      "name": "NFTContract",
      "outputs": [
        {
          "internalType": "address",
          "name": "",
          "type": "address"
        }
      ],
      "stateMutability": "view",
      "type": "function",
      "constant": true
    },
    {
      "inputs": [
        {
          "internalType": "address",
          "name": "owner",
          "type": "address"
        },
        {
          "internalType": "address",
          "name": "spender",
          "type": "address"
        }
      ],
      "name": "allowance",
      "outputs": [
        {
          "internalType": "uint256",
          "name": "",
          "type": "uint256"
        }
      ],
      "stateMutability": "view",
      "type": "function",
      "constant": true
    },
    {
      "inputs": [
        {
          "internalType": "address",
          "name": "spender",
          "type": "address"
        },
        {
          "internalType": "uint256",
          "name": "amount",
          "type": "uint256"
        }
      ],
      "name": "approve",
      "outputs": [
        {
          "internalType": "bool",
          "name": "",
          "type": "bool"
        }
      ],
      "stateMutability": "nonpayable",
      "type": "function"
    },
    {
      "inputs": [
        {
          "internalType": "address",
          "name": "account",
          "type": "address"
        }
      ],
      "name": "balanceOf",
      "outputs": [
        {
          "internalType": "uint256",
          "name": "",
          "type": "uint256"
        }
      ],
      "stateMutability": "view",
      "type": "function",
      "constant": true
    },
    {
      "inputs": [],
      "name": "decimals",
      "outputs": [
        {
          "internalType": "uint8",
          "name": "",
          "type": "uint8"
        }
      ],
      "stateMutability": "view",
      "type": "function",
      "constant": true
    },
    {
      "inputs": [
        {
          "internalType": "address",
          "name": "spender",
          "type": "address"
        },
        {
          "internalType": "uint256",
          "name": "subtractedValue",
          "type": "uint256"
        }
      ],
      "name": "decreaseAllowance",
      "outputs": [
        {
          "internalType": "bool",
          "name": "",
          "type": "bool"
        }
      ],
      "stateMutability": "nonpayable",
      "type": "function"
    },
    {
      "inputs": [
        {
          "internalType": "address",
          "name": "spender",
          "type": "address"
        },
        {
          "internalType": "uint256",
          "name": "addedValue",
          "type": "uint256"
        }
      ],
      "name": "increaseAllowance",
      "outputs": [
        {
          "internalType": "bool",
          "name": "",
          "type": "bool"
        }
      ],
      "stateMutability": "nonpayable",
      "type": "function"
    },
    {
      "inputs": [],
      "name": "lotteryContract",
      "outputs": [
        {
          "internalType": "address",
          "name": "",
          "type": "address"
        }
      ],
      "stateMutability": "view",
      "type": "function",
      "constant": true
    },
    {
      "inputs": [],
      "name": "name",
      "outputs": [
        {
          "internalType": "string",
          "name": "",
          "type": "string"
        }
      ],
      "stateMutability": "view",
      "type": "function",
      "constant": true
    },
    {
      "inputs": [],
      "name": "owner",
      "outputs": [
        {
          "internalType": "address",
          "name": "",
          "type": "address"
        }
      ],
      "stateMutability": "view",
      "type": "function",
      "constant": true
    },
    {
      "inputs": [],
      "name": "prizePool",
      "outputs": [
        {
          "internalType": "uint256",
          "name": "",
          "type": "uint256"
        }
      ],
      "stateMutability": "view",
      "type": "function",
      "constant": true
    },
    {
      "inputs": [],
      "name": "renounceOwnership",
      "outputs": [],
      "stateMutability": "nonpayable",
      "type": "function"
    },
    {
      "inputs": [],
      "name": "symbol",
      "outputs": [
        {
          "internalType": "string",
          "name": "",
          "type": "string"
        }
      ],
      "stateMutability": "view",
      "type": "function",
      "constant": true
    },
    {
      "inputs": [],
      "name": "ticketPrice",
      "outputs": [
        {
          "internalType": "uint256",
          "name": "",
          "type": "uint256"
        }
      ],
      "stateMutability": "view",
      "type": "function",
      "constant": true
    },
    {
      "inputs": [],
      "name": "totalSupply",
      "outputs": [
        {
          "internalType": "uint256",
          "name": "",
          "type": "uint256"
        }
      ],
      "stateMutability": "view",
      "type": "function",
      "constant": true
    },
    {
      "inputs": [
        {
          "internalType": "address",
          "name": "to",
          "type": "address"
        },
        {
          "internalType": "uint256",
          "name": "amount",
          "type": "uint256"
        }
      ],
      "name": "transfer",
      "outputs": [
        {
          "internalType": "bool",
          "name": "",
          "type": "bool"
        }
      ],
      "stateMutability": "nonpayable",
      "type": "function"
    },
    {
      "inputs": [
        {
          "internalType": "address",
          "name": "from",
          "type": "address"
        },
        {
          "internalType": "address",
          "name": "to",
          "type": "address"
        },
        {
          "internalType": "uint256",
          "name": "amount",
          "type": "uint256"
        }
      ],
      "name": "transferFrom",
      "outputs": [
        {
          "internalType": "bool",
          "name": "",
          "type": "bool"
        }
      ],
      "stateMutability": "nonpayable",
      "type": "function"
    },
    {
      "inputs": [
        {
          "internalType": "address",
          "name": "newOwner",
          "type": "address"
        }
      ],
      "name": "transferOwnership",
      "outputs": [],
      "stateMutability": "nonpayable",
      "type": "function"
    },
    {
      "inputs": [],
      "name": "winnerAddress",
      "outputs": [
        {
          "internalType": "address",
          "name": "",
          "type": "address"
        }
      ],
      "stateMutability": "view",
      "type": "function",
      "constant": true
    },
    {
      "inputs": [],
      "name": "winnerNumber",
      "outputs": [
        {
          "internalType": "uint256",
          "name": "",
          "type": "uint256"
        }
      ],
      "stateMutability": "view",
      "type": "function",
      "constant": true
    },
    {
      "inputs": [
        {
          "internalType": "uint256",
          "name": "",
          "type": "uint256"
        }
      ],
      "name": "winners_history",
      "outputs": [
        {
          "internalType": "uint256",
          "name": "timestamp",
          "type": "uint256"
        },
        {
          "internalType": "address",
          "name": "winner",
          "type": "address"
        },
        {
          "internalType": "uint256",
          "name": "number",
          "type": "uint256"
        },
        {
          "internalType": "uint256",
          "name": "prize",
          "type": "uint256"
        }
      ],
      "stateMutability": "view",
      "type": "function",
      "constant": true
    },
    {
      "inputs": [],
      "name": "getLotteryRecords",
      "outputs": [
        {
          "components": [
            {
              "internalType": "uint256",
              "name": "timestamp",
              "type": "uint256"
            },
            {
              "internalType": "address",
              "name": "winner",
              "type": "address"
            },
            {
              "internalType": "uint256",
              "name": "number",
              "type": "uint256"
            },
            {
              "internalType": "uint256",
              "name": "prize",
              "type": "uint256"
            }
          ],
          "internalType": "struct Lottery.Records[]",
          "name": "",
          "type": "tuple[]"
        }
      ],
      "stateMutability": "view",
      "type": "function",
      "constant": true
    },
    {
      "inputs": [
        {
          "internalType": "address",
          "name": "_account",
          "type": "address"
        }
      ],
      "name": "tokensBalance",
      "outputs": [
        {
          "internalType": "uint256",
          "name": "",
          "type": "uint256"
        }
      ],
      "stateMutability": "view",
      "type": "function",
      "constant": true
    },
    {
      "inputs": [],
      "name": "tokensBalanceSC",
      "outputs": [
        {
          "internalType": "uint256",
          "name": "",
          "type": "uint256"
        }
      ],
      "stateMutability": "view",
      "type": "function",
      "constant": true
    },
    {
      "inputs": [],
      "name": "ethersBalanceSC",
      "outputs": [
        {
          "internalType": "uint256",
          "name": "",
          "type": "uint256"
        }
      ],
      "stateMutability": "view",
      "type": "function",
      "constant": true
    },
    {
      "inputs": [
        {
          "internalType": "uint256",
          "name": "amount",
          "type": "uint256"
        }
      ],
      "name": "_mintNewTokens",
      "outputs": [
        {
          "internalType": "bool",
          "name": "",
          "type": "bool"
        }
      ],
      "stateMutability": "nonpayable",
      "type": "function"
    },
    {
      "inputs": [
        {
          "internalType": "uint256",
          "name": "_amount",
          "type": "uint256"
        }
      ],
      "name": "buyTokens",
      "outputs": [],
      "stateMutability": "payable",
      "type": "function",
      "payable": true
    },
    {
      "inputs": [
        {
          "internalType": "uint256",
          "name": "_amount",
          "type": "uint256"
        }
      ],
      "name": "returnTokens",
      "outputs": [],
      "stateMutability": "payable",
      "type": "function",
      "payable": true
    },
    {
      "inputs": [],
      "name": "getGeneratedTickets",
      "outputs": [
        {
          "internalType": "uint256[]",
          "name": "",
          "type": "uint256[]"
        }
      ],
      "stateMutability": "view",
      "type": "function",
      "constant": true
    },
    {
      "inputs": [],
      "name": "getPlayers",
      "outputs": [
        {
          "internalType": "address[]",
          "name": "",
          "type": "address[]"
        }
      ],
      "stateMutability": "view",
      "type": "function",
      "constant": true
    },
    {
      "inputs": [
        {
          "internalType": "uint256",
          "name": "_amount",
          "type": "uint256"
        }
      ],
      "name": "buyTickets",
      "outputs": [],
      "stateMutability": "nonpayable",
      "type": "function"
    },
    {
      "inputs": [
        {
          "internalType": "address",
          "name": "_address",
          "type": "address"
        }
      ],
      "name": "getTickets",
      "outputs": [
        {
          "internalType": "uint256[]",
          "name": "",
          "type": "uint256[]"
        }
      ],
      "stateMutability": "view",
      "type": "function",
      "constant": true
    },
    {
      "inputs": [],
      "name": "getLotteryWinner",
      "outputs": [],
      "stateMutability": "nonpayable",
      "type": "function"
    }
  ],
  "bytecode": "0x60806040526001600c5560006011553480156200001b57600080fd5b506040518060400160405280600781526020017f4c6f7474657279000000000000000000000000000000000000000000000000008152506040518060400160405280600381526020017f4c4f5400000000000000000000000000000000000000000000000000000000008152508160039080519060200190620000a092919062000402565b508060049080519060200190620000b992919062000402565b505050620000dc620000d0620001b160201b60201c565b620001b960201b60201c565b620000f130620186a06200027f60201b60201c565b30604051620001009062000493565b6200010c919062000509565b604051809103906000f08015801562000129573d6000803e3d6000fd5b50600760006101000a81548173ffffffffffffffffffffffffffffffffffffffff021916908373ffffffffffffffffffffffffffffffffffffffff16021790555030600660006101000a81548173ffffffffffffffffffffffffffffffffffffffff021916908373ffffffffffffffffffffffffffffffffffffffff160217905550620006ce565b600033905090565b6000600560009054906101000a900473ffffffffffffffffffffffffffffffffffffffff16905081600560006101000a81548173ffffffffffffffffffffffffffffffffffffffff021916908373ffffffffffffffffffffffffffffffffffffffff1602179055508173ffffffffffffffffffffffffffffffffffffffff168173ffffffffffffffffffffffffffffffffffffffff167f8be0079c531659141344cd1fd0a4f28419497f9722a3daafe3b4186f6b6457e060405160405180910390a35050565b600073ffffffffffffffffffffffffffffffffffffffff168273ffffffffffffffffffffffffffffffffffffffff161415620002f2576040517f08c379a0000000000000000000000000000000000000000000000000000000008152600401620002e99062000526565b60405180910390fd5b6200030660008383620003f860201b60201c565b80600260008282546200031a919062000576565b92505081905550806000808473ffffffffffffffffffffffffffffffffffffffff1673ffffffffffffffffffffffffffffffffffffffff168152602001908152602001600020600082825462000371919062000576565b925050819055508173ffffffffffffffffffffffffffffffffffffffff16600073ffffffffffffffffffffffffffffffffffffffff167fddf252ad1be2c89b69c2b068fc378daa952ba7f163c4a11628f55a4df523b3ef83604051620003d8919062000548565b60405180910390a3620003f460008383620003fd60201b60201c565b5050565b505050565b505050565b828054620004109062000611565b90600052602060002090601f01602090048101928262000434576000855562000480565b82601f106200044f57805160ff191683800117855562000480565b8280016001018555821562000480579182015b828111156200047f57825182559160200191906001019062000462565b5b5090506200048f9190620004a1565b5090565b612ede8062003dcf83390190565b5b80821115620004bc576000816000905550600101620004a2565b5090565b620004cb81620005d3565b82525050565b6000620004e0601f8362000565565b9150620004ed82620006a5565b602082019050919050565b620005038162000607565b82525050565b6000602082019050620005206000830184620004c0565b92915050565b600060208201905081810360008301526200054181620004d1565b9050919050565b60006020820190506200055f6000830184620004f8565b92915050565b600082825260208201905092915050565b6000620005838262000607565b9150620005908362000607565b9250827fffffffffffffffffffffffffffffffffffffffffffffffffffffffffffffffff03821115620005c857620005c762000647565b5b828201905092915050565b6000620005e082620005e7565b9050919050565b600073ffffffffffffffffffffffffffffffffffffffff82169050919050565b6000819050919050565b600060028204905060018216806200062a57607f821691505b6020821081141562000641576200064062000676565b5b50919050565b7f4e487b7100000000000000000000000000000000000000000000000000000000600052601160045260246000fd5b7f4e487b7100000000000000000000000000000000000000000000000000000000600052602260045260246000fd5b7f45524332303a206d696e7420746f20746865207a65726f206164647265737300600082015250565b6136f180620006de6000396000f3fe6080604052600436106101ee5760003560e01c806357141fe61161010d578063a457c2d7116100a0578063bec36b361161006f578063bec36b3614610704578063cf25ba4414610741578063dd62ed3e1461076c578063ed7a4e0b146107a9578063f2fde38b146107d4576101ee565b8063a457c2d714610648578063a9059cbb14610685578063b29c662a146106c2578063b2d55c1c146106ed576101ee565b8063754e268c116100dc578063754e268c146105875780638b5b9ccc146105c75780638da5cb5b146105f257806395d89b411461061d576101ee565b806357141fe6146104cb57806370a0823114610508578063715018a614610545578063719ce73e1461055c576101ee565b8063313ce567116101855780633950935111610154578063395093511461041c5780633ae1786f146104595780633f54b0331461047557806343cc2e6c146104a0576101ee565b8063313ce5671461037f57806331c2273b146103aa57806333071ecf146103d55780633610724e14610400576101ee565b806318160ddd116101c157806318160ddd146102c357806323b872dd146102ee5780632b16dd171461032b5780632f36663714610356576101ee565b806306fdde03146101f3578063095ea7b31461021e5780630ad182bc1461025b5780631209b1f614610298575b600080fd5b3480156101ff57600080fd5b506102086107fd565b6040516102159190612b89565b60405180910390f35b34801561022a57600080fd5b506102456004803603810190610240919061255f565b61088f565b6040516102529190612b6e565b60405180910390f35b34801561026757600080fd5b50610282600480360381019061027d91906124ab565b6108b2565b60405161028f9190612b4c565b60405180910390f35b3480156102a457600080fd5b506102ad610949565b6040516102ba9190612dab565b60405180910390f35b3480156102cf57600080fd5b506102d861094f565b6040516102e59190612dab565b60405180910390f35b3480156102fa57600080fd5b5061031560048036038101906103109190612510565b610959565b6040516103229190612b6e565b60405180910390f35b34801561033757600080fd5b50610340610988565b60405161034d9190612b2a565b60405180910390f35b34801561036257600080fd5b5061037d6004803603810190610378919061259b565b610a5b565b005b34801561038b57600080fd5b50610394610e07565b6040516103a19190612e0b565b60405180910390f35b3480156103b657600080fd5b506103bf610e10565b6040516103cc9190612ac4565b60405180910390f35b3480156103e157600080fd5b506103ea610e36565b6040516103f79190612b4c565b60405180910390f35b61041a6004803603810190610415919061259b565b610e8e565b005b34801561042857600080fd5b50610443600480360381019061043e919061255f565b610f95565b6040516104509190612b6e565b60405180910390f35b610473600480360381019061046e919061259b565b61103f565b005b34801561048157600080fd5b5061048a611130565b6040516104979190612dab565b60405180910390f35b3480156104ac57600080fd5b506104b5611136565b6040516104c29190612dab565b60405180910390f35b3480156104d757600080fd5b506104f260048036038101906104ed91906124ab565b61113e565b6040516104ff9190612dab565b60405180910390f35b34801561051457600080fd5b5061052f600480360381019061052a91906124ab565b611150565b60405161053c9190612dab565b60405180910390f35b34801561055157600080fd5b5061055a611198565b005b34801561056857600080fd5b50610571611220565b60405161057e9190612dab565b60405180910390f35b34801561059357600080fd5b506105ae60048036038101906105a9919061259b565b611226565b6040516105be9493929190612dc6565b60405180910390f35b3480156105d357600080fd5b506105dc611286565b6040516105e99190612b08565b60405180910390f35b3480156105fe57600080fd5b50610607611314565b6040516106149190612ac4565b60405180910390f35b34801561062957600080fd5b5061063261133e565b60405161063f9190612b89565b60405180910390f35b34801561065457600080fd5b5061066f600480360381019061066a919061255f565b6113d0565b60405161067c9190612b6e565b60405180910390f35b34801561069157600080fd5b506106ac60048036038101906106a7919061255f565b6114ba565b6040516106b99190612b6e565b60405180910390f35b3480156106ce57600080fd5b506106d76114dd565b6040516106e49190612ac4565b60405180910390f35b3480156106f957600080fd5b50610702611503565b005b34801561071057600080fd5b5061072b6004803603810190610726919061259b565b611ab0565b6040516107389190612b6e565b60405180910390f35b34801561074d57600080fd5b50610756611b41565b6040516107639190612dab565b60405180910390f35b34801561077857600080fd5b50610793600480360381019061078e91906124d4565b611b51565b6040516107a09190612dab565b60405180910390f35b3480156107b557600080fd5b506107be611bd8565b6040516107cb9190612ac4565b60405180910390f35b3480156107e057600080fd5b506107fb60048036038101906107f691906124ab565b611bfe565b005b60606003805461080c9061308a565b80601f01602080910402602001604051908101604052809291908181526020018280546108389061308a565b80156108855780601f1061085a57610100808354040283529160200191610885565b820191906000526020600020905b81548152906001019060200180831161086857829003601f168201915b5050505050905090565b60008061089a611cf6565b90506108a7818585611cfe565b600191505092915050565b6060600f60008373ffffffffffffffffffffffffffffffffffffffff1673ffffffffffffffffffffffffffffffffffffffff16815260200190815260200160002080548060200260200160405190810160405280929190818152602001828054801561093d57602002820191906000526020600020905b815481526020019060010190808311610929575b50505050509050919050565b600c5481565b6000600254905090565b600080610964611cf6565b9050610971858285611ec9565b61097c858585611f55565b60019150509392505050565b6060600b805480602002602001604051908101604052809291908181526020016000905b82821015610a525783829060005260206000209060040201604051806080016040529081600082015481526020016001820160009054906101000a900473ffffffffffffffffffffffffffffffffffffffff1673ffffffffffffffffffffffffffffffffffffffff1673ffffffffffffffffffffffffffffffffffffffff16815260200160028201548152602001600382015481525050815260200190600101906109ac565b50505050905090565b6000600c5482610a6b9190612f74565b9050610a7760016121d6565b82610a829190612f74565b600a6000828254610a939190612eed565b9250508190555080610aa43361113e565b1015610ae5576040517f08c379a0000000000000000000000000000000000000000000000000000000008152600401610adc90612d0b565b60405180910390fd5b610af0333083611f55565b60005b82811015610e02576000805b81610bce57620186a04233601154604051602001610b1f93929190612a87565b6040516020818303038152906040528051906020012060001c610b429190613133565b905060116000815480929190610b57906130bc565b9190505550600073ffffffffffffffffffffffffffffffffffffffff166010600083815260200190815260200160002060009054906101000a900473ffffffffffffffffffffffffffffffffffffffff1673ffffffffffffffffffffffffffffffffffffffff161415610bc957600191505b610aff565b6000600f60003373ffffffffffffffffffffffffffffffffffffffff1673ffffffffffffffffffffffffffffffffffffffff168152602001908152602001600020805490501415610c7d57600d339080600181540180825580915050600190039060005260206000200160009091909190916101000a81548173ffffffffffffffffffffffffffffffffffffffff021916908373ffffffffffffffffffffffffffffffffffffffff1602179055505b600f60003373ffffffffffffffffffffffffffffffffffffffff1673ffffffffffffffffffffffffffffffffffffffff168152602001908152602001600020819080600181540180825580915050600190039060005260206000200160009091909190915055600e819080600181540180825580915050600190039060005260206000200160009091909190915055336010600083815260200190815260200160002060006101000a81548173ffffffffffffffffffffffffffffffffffffffff021916908373ffffffffffffffffffffffffffffffffffffffff160217905550600760009054906101000a900473ffffffffffffffffffffffffffffffffffffffff1673ffffffffffffffffffffffffffffffffffffffff166338724e6a33836040518363ffffffff1660e01b8152600401610dbb929190612adf565b600060405180830381600087803b158015610dd557600080fd5b505af1158015610de9573d6000803e3d6000fd5b5050505050508080610dfa906130bc565b915050610af3565b505050565b60006012905090565b600760009054906101000a900473ffffffffffffffffffffffffffffffffffffffff1681565b6060600e805480602002602001604051908101604052809291908181526020018280548015610e8457602002820191906000526020600020905b815481526020019060010190808311610e70575b5050505050905090565b6000610e99826121d6565b905080341015610ede576040517f08c379a0000000000000000000000000000000000000000000000000000000008152600401610ed590612c8b565b60405180910390fd5b6000610ee8611b41565b905082811015610f2d576040517f08c379a0000000000000000000000000000000000000000000000000000000008152600401610f2490612cab565b60405180910390fd5b60008234610f3b9190612fce565b90503373ffffffffffffffffffffffffffffffffffffffff166108fc829081150290604051600060405180830381858888f19350505050158015610f83573d6000803e3d6000fd5b50610f8f303386611f55565b50505050565b600080610fa0611cf6565b9050611034818585600160008673ffffffffffffffffffffffffffffffffffffffff1673ffffffffffffffffffffffffffffffffffffffff16815260200190815260200160002060008973ffffffffffffffffffffffffffffffffffffffff1673ffffffffffffffffffffffffffffffffffffffff1681526020019081526020016000205461102f9190612eed565b611cfe565b600191505092915050565b60008111611082576040517f08c379a000000000000000000000000000000000000000000000000000000000815260040161107990612c6b565b60405180910390fd5b8061108c3361113e565b10156110cd576040517f08c379a00000000000000000000000000000000000000000000000000000000081526004016110c490612d4b565b60405180910390fd5b6110d8333083611f55565b60006110e3826121d6565b90503373ffffffffffffffffffffffffffffffffffffffff166108fc829081150290604051600060405180830381858888f1935050505015801561112b573d6000803e3d6000fd5b505050565b60095481565b600047905090565b600061114982611150565b9050919050565b60008060008373ffffffffffffffffffffffffffffffffffffffff1673ffffffffffffffffffffffffffffffffffffffff168152602001908152602001600020549050919050565b6111a0611cf6565b73ffffffffffffffffffffffffffffffffffffffff166111be611314565b73ffffffffffffffffffffffffffffffffffffffff1614611214576040517f08c379a000000000000000000000000000000000000000000000000000000000815260040161120b90612ccb565b60405180910390fd5b61121e60006121f2565b565b600a5481565b600b818154811061123657600080fd5b90600052602060002090600402016000915090508060000154908060010160009054906101000a900473ffffffffffffffffffffffffffffffffffffffff16908060020154908060030154905084565b6060600d80548060200260200160405190810160405280929190818152602001828054801561130a57602002820191906000526020600020905b8160009054906101000a900473ffffffffffffffffffffffffffffffffffffffff1673ffffffffffffffffffffffffffffffffffffffff16815260200190600101908083116112c0575b5050505050905090565b6000600560009054906101000a900473ffffffffffffffffffffffffffffffffffffffff16905090565b60606004805461134d9061308a565b80601f01602080910402602001604051908101604052809291908181526020018280546113799061308a565b80156113c65780601f1061139b576101008083540402835291602001916113c6565b820191906000526020600020905b8154815290600101906020018083116113a957829003601f168201915b5050505050905090565b6000806113db611cf6565b90506000600160008373ffffffffffffffffffffffffffffffffffffffff1673ffffffffffffffffffffffffffffffffffffffff16815260200190815260200160002060008673ffffffffffffffffffffffffffffffffffffffff1673ffffffffffffffffffffffffffffffffffffffff168152602001908152602001600020549050838110156114a1576040517f08c379a000000000000000000000000000000000000000000000000000000000815260040161149890612d6b565b60405180910390fd5b6114ae8286868403611cfe565b60019250505092915050565b6000806114c5611cf6565b90506114d2818585611f55565b600191505092915050565b600660009054906101000a900473ffffffffffffffffffffffffffffffffffffffff1681565b6000600e80549050905060008111611550576040517f08c379a000000000000000000000000000000000000000000000000000000000815260040161154790612c4b565b60405180910390fd5b600081426040516020016115649190612a6c565b6040516020818303038152906040528051906020012060001c6115879190613133565b9050600e81815481106115c3577f4e487b7100000000000000000000000000000000000000000000000000000000600052603260045260246000fd5b906000526020600020015460098190555060106000600954815260200190815260200160002060009054906101000a900473ffffffffffffffffffffffffffffffffffffffff16600860006101000a81548173ffffffffffffffffffffffffffffffffffffffff021916908373ffffffffffffffffffffffffffffffffffffffff1602179055506000605f6064600a5461165d9190612f43565b6116679190612f74565b9050600860009054906101000a900473ffffffffffffffffffffffffffffffffffffffff1673ffffffffffffffffffffffffffffffffffffffff166108fc829081150290604051600060405180830381858888f193505050501580156116d1573d6000803e3d6000fd5b50600081600a546116e29190612fce565b90506116ec611314565b73ffffffffffffffffffffffffffffffffffffffff166108fc829081150290604051600060405180830381858888f19350505050158015611731573d6000803e3d6000fd5b5060006040518060800160405280428152602001600860009054906101000a900473ffffffffffffffffffffffffffffffffffffffff1673ffffffffffffffffffffffffffffffffffffffff1681526020016009548152602001600a548152509050600b8190806001815401808255809150506001900390600052602060002090600402016000909190919091506000820151816000015560208201518160010160006101000a81548173ffffffffffffffffffffffffffffffffffffffff021916908373ffffffffffffffffffffffffffffffffffffffff160217905550604082015181600201556060820151816003015550506000600a8190555060005b600d8054905081101561190057600f6000600d838154811061187c577f4e487b7100000000000000000000000000000000000000000000000000000000600052603260045260246000fd5b9060005260206000200160009054906101000a900473ffffffffffffffffffffffffffffffffffffffff1673ffffffffffffffffffffffffffffffffffffffff1673ffffffffffffffffffffffffffffffffffffffff16815260200190815260200160002060006118ed9190612422565b80806118f8906130bc565b915050611831565b5060005b600e80549050811015611a8c57600060106000600e8481548110611951577f4e487b7100000000000000000000000000000000000000000000000000000000600052603260045260246000fd5b9060005260206000200154815260200190815260200160002060006101000a81548173ffffffffffffffffffffffffffffffffffffffff021916908373ffffffffffffffffffffffffffffffffffffffff160217905550600760009054906101000a900473ffffffffffffffffffffffffffffffffffffffff1673ffffffffffffffffffffffffffffffffffffffff166354b4380f600e8381548110611a20577f4e487b7100000000000000000000000000000000000000000000000000000000600052603260045260246000fd5b90600052602060002001546040518263ffffffff1660e01b8152600401611a479190612dab565b600060405180830381600087803b158015611a6157600080fd5b505af1158015611a75573d6000803e3d6000fd5b505050508080611a84906130bc565b915050611904565b50600e6000611a9b9190612422565b600d6000611aa99190612443565b5050505050565b6000611aba611cf6565b73ffffffffffffffffffffffffffffffffffffffff16611ad8611314565b73ffffffffffffffffffffffffffffffffffffffff1614611b2e576040517f08c379a0000000000000000000000000000000000000000000000000000000008152600401611b2590612ccb565b60405180910390fd5b611b3830836122b8565b60019050919050565b6000611b4c30611150565b905090565b6000600160008473ffffffffffffffffffffffffffffffffffffffff1673ffffffffffffffffffffffffffffffffffffffff16815260200190815260200160002060008373ffffffffffffffffffffffffffffffffffffffff1673ffffffffffffffffffffffffffffffffffffffff16815260200190815260200160002054905092915050565b600860009054906101000a900473ffffffffffffffffffffffffffffffffffffffff1681565b611c06611cf6565b73ffffffffffffffffffffffffffffffffffffffff16611c24611314565b73ffffffffffffffffffffffffffffffffffffffff1614611c7a576040517f08c379a0000000000000000000000000000000000000000000000000000000008152600401611c7190612ccb565b60405180910390fd5b600073ffffffffffffffffffffffffffffffffffffffff168173ffffffffffffffffffffffffffffffffffffffff161415611cea576040517f08c379a0000000000000000000000000000000000000000000000000000000008152600401611ce190612bcb565b60405180910390fd5b611cf3816121f2565b50565b600033905090565b600073ffffffffffffffffffffffffffffffffffffffff168373ffffffffffffffffffffffffffffffffffffffff161415611d6e576040517f08c379a0000000000000000000000000000000000000000000000000000000008152600401611d6590612d2b565b60405180910390fd5b600073ffffffffffffffffffffffffffffffffffffffff168273ffffffffffffffffffffffffffffffffffffffff161415611dde576040517f08c379a0000000000000000000000000000000000000000000000000000000008152600401611dd590612beb565b60405180910390fd5b80600160008573ffffffffffffffffffffffffffffffffffffffff1673ffffffffffffffffffffffffffffffffffffffff16815260200190815260200160002060008473ffffffffffffffffffffffffffffffffffffffff1673ffffffffffffffffffffffffffffffffffffffff168152602001908152602001600020819055508173ffffffffffffffffffffffffffffffffffffffff168373ffffffffffffffffffffffffffffffffffffffff167f8c5be1e5ebec7d5bd14f71427d1e84f3dd0314c0f7b2291e5b200ac8c7c3b92583604051611ebc9190612dab565b60405180910390a3505050565b6000611ed58484611b51565b90507fffffffffffffffffffffffffffffffffffffffffffffffffffffffffffffffff8114611f4f5781811015611f41576040517f08c379a0000000000000000000000000000000000000000000000000000000008152600401611f3890612c0b565b60405180910390fd5b611f4e8484848403611cfe565b5b50505050565b600073ffffffffffffffffffffffffffffffffffffffff168373ffffffffffffffffffffffffffffffffffffffff161415611fc5576040517f08c379a0000000000000000000000000000000000000000000000000000000008152600401611fbc90612ceb565b60405180910390fd5b600073ffffffffffffffffffffffffffffffffffffffff168273ffffffffffffffffffffffffffffffffffffffff161415612035576040517f08c379a000000000000000000000000000000000000000000000000000000000815260040161202c90612bab565b60405180910390fd5b612040838383612418565b60008060008573ffffffffffffffffffffffffffffffffffffffff1673ffffffffffffffffffffffffffffffffffffffff168152602001908152602001600020549050818110156120c6576040517f08c379a00000000000000000000000000000000000000000000000000000000081526004016120bd90612c2b565b60405180910390fd5b8181036000808673ffffffffffffffffffffffffffffffffffffffff1673ffffffffffffffffffffffffffffffffffffffff16815260200190815260200160002081905550816000808573ffffffffffffffffffffffffffffffffffffffff1673ffffffffffffffffffffffffffffffffffffffff16815260200190815260200160002060008282546121599190612eed565b925050819055508273ffffffffffffffffffffffffffffffffffffffff168473ffffffffffffffffffffffffffffffffffffffff167fddf252ad1be2c89b69c2b068fc378daa952ba7f163c4a11628f55a4df523b3ef846040516121bd9190612dab565b60405180910390a36121d084848461241d565b50505050565b6000662386f26fc10000826121eb9190612f74565b9050919050565b6000600560009054906101000a900473ffffffffffffffffffffffffffffffffffffffff16905081600560006101000a81548173ffffffffffffffffffffffffffffffffffffffff021916908373ffffffffffffffffffffffffffffffffffffffff1602179055508173ffffffffffffffffffffffffffffffffffffffff168173ffffffffffffffffffffffffffffffffffffffff167f8be0079c531659141344cd1fd0a4f28419497f9722a3daafe3b4186f6b6457e060405160405180910390a35050565b600073ffffffffffffffffffffffffffffffffffffffff168273ffffffffffffffffffffffffffffffffffffffff161415612328576040517f08c379a000000000000000000000000000000000000000000000000000000000815260040161231f90612d8b565b60405180910390fd5b61233460008383612418565b80600260008282546123469190612eed565b92505081905550806000808473ffffffffffffffffffffffffffffffffffffffff1673ffffffffffffffffffffffffffffffffffffffff168152602001908152602001600020600082825461239b9190612eed565b925050819055508173ffffffffffffffffffffffffffffffffffffffff16600073ffffffffffffffffffffffffffffffffffffffff167fddf252ad1be2c89b69c2b068fc378daa952ba7f163c4a11628f55a4df523b3ef836040516124009190612dab565b60405180910390a36124146000838361241d565b5050565b505050565b505050565b50805460008255906000526020600020908101906124409190612464565b50565b50805460008255906000526020600020908101906124619190612464565b50565b5b8082111561247d576000816000905550600101612465565b5090565b6000813590506124908161368d565b92915050565b6000813590506124a5816136a4565b92915050565b6000602082840312156124bd57600080fd5b60006124cb84828501612481565b91505092915050565b600080604083850312156124e757600080fd5b60006124f585828601612481565b925050602061250685828601612481565b9150509250929050565b60008060006060848603121561252557600080fd5b600061253386828701612481565b935050602061254486828701612481565b925050604061255586828701612496565b9150509250925092565b6000806040838503121561257257600080fd5b600061258085828601612481565b925050602061259185828601612496565b9150509250929050565b6000602082840312156125ad57600080fd5b60006125bb84828501612496565b91505092915050565b60006125d0838361260c565b60208301905092915050565b60006125e883836129d3565b60808301905092915050565b60006126008383612a28565b60208301905092915050565b61261581613002565b82525050565b61262481613002565b82525050565b61263b61263682613002565b613105565b82525050565b600061264c82612e56565b6126568185612ea9565b935061266183612e26565b8060005b8381101561269257815161267988826125c4565b975061268483612e82565b925050600181019050612665565b5085935050505092915050565b60006126aa82612e61565b6126b48185612eba565b93506126bf83612e36565b8060005b838110156126f05781516126d788826125dc565b97506126e283612e8f565b9250506001810190506126c3565b5085935050505092915050565b600061270882612e6c565b6127128185612ecb565b935061271d83612e46565b8060005b8381101561274e57815161273588826125f4565b975061274083612e9c565b925050600181019050612721565b5085935050505092915050565b61276481613014565b82525050565b600061277582612e77565b61277f8185612edc565b935061278f818560208601613057565b612798816131f1565b840191505092915050565b60006127b0602383612edc565b91506127bb8261320f565b604082019050919050565b60006127d3602683612edc565b91506127de8261325e565b604082019050919050565b60006127f6602283612edc565b9150612801826132ad565b604082019050919050565b6000612819601d83612edc565b9150612824826132fc565b602082019050919050565b600061283c602683612edc565b915061284782613325565b604082019050919050565b600061285f601c83612edc565b915061286a82613374565b602082019050919050565b6000612882602f83612edc565b915061288d8261339d565b604082019050919050565b60006128a5603a83612edc565b91506128b0826133ec565b604082019050919050565b60006128c8603f83612edc565b91506128d38261343b565b604082019050919050565b60006128eb602083612edc565b91506128f68261348a565b602082019050919050565b600061290e602583612edc565b9150612919826134b3565b604082019050919050565b6000612931604783612edc565b915061293c82613502565b606082019050919050565b6000612954602483612edc565b915061295f82613577565b604082019050919050565b6000612977603e83612edc565b9150612982826135c6565b604082019050919050565b600061299a602583612edc565b91506129a582613615565b604082019050919050565b60006129bd601f83612edc565b91506129c882613664565b602082019050919050565b6080820160008201516129e96000850182612a28565b5060208201516129fc602085018261260c565b506040820151612a0f6040850182612a28565b506060820151612a226060850182612a28565b50505050565b612a3181613040565b82525050565b612a4081613040565b82525050565b612a57612a5282613040565b613129565b82525050565b612a668161304a565b82525050565b6000612a788284612a46565b60208201915081905092915050565b6000612a938286612a46565b602082019150612aa3828561262a565b601482019150612ab38284612a46565b602082019150819050949350505050565b6000602082019050612ad9600083018461261b565b92915050565b6000604082019050612af4600083018561261b565b612b016020830184612a37565b9392505050565b60006020820190508181036000830152612b228184612641565b905092915050565b60006020820190508181036000830152612b44818461269f565b905092915050565b60006020820190508181036000830152612b6681846126fd565b905092915050565b6000602082019050612b83600083018461275b565b92915050565b60006020820190508181036000830152612ba3818461276a565b905092915050565b60006020820190508181036000830152612bc4816127a3565b9050919050565b60006020820190508181036000830152612be4816127c6565b9050919050565b60006020820190508181036000830152612c04816127e9565b9050919050565b60006020820190508181036000830152612c248161280c565b9050919050565b60006020820190508181036000830152612c448161282f565b9050919050565b60006020820190508181036000830152612c6481612852565b9050919050565b60006020820190508181036000830152612c8481612875565b9050919050565b60006020820190508181036000830152612ca481612898565b9050919050565b60006020820190508181036000830152612cc4816128bb565b9050919050565b60006020820190508181036000830152612ce4816128de565b9050919050565b60006020820190508181036000830152612d0481612901565b9050919050565b60006020820190508181036000830152612d2481612924565b9050919050565b60006020820190508181036000830152612d4481612947565b9050919050565b60006020820190508181036000830152612d648161296a565b9050919050565b60006020820190508181036000830152612d848161298d565b9050919050565b60006020820190508181036000830152612da4816129b0565b9050919050565b6000602082019050612dc06000830184612a37565b92915050565b6000608082019050612ddb6000830187612a37565b612de8602083018661261b565b612df56040830185612a37565b612e026060830184612a37565b95945050505050565b6000602082019050612e206000830184612a5d565b92915050565b6000819050602082019050919050565b6000819050602082019050919050565b6000819050602082019050919050565b600081519050919050565b600081519050919050565b600081519050919050565b600081519050919050565b6000602082019050919050565b6000602082019050919050565b6000602082019050919050565b600082825260208201905092915050565b600082825260208201905092915050565b600082825260208201905092915050565b600082825260208201905092915050565b6000612ef882613040565b9150612f0383613040565b9250827fffffffffffffffffffffffffffffffffffffffffffffffffffffffffffffffff03821115612f3857612f37613164565b5b828201905092915050565b6000612f4e82613040565b9150612f5983613040565b925082612f6957612f68613193565b5b828204905092915050565b6000612f7f82613040565b9150612f8a83613040565b9250817fffffffffffffffffffffffffffffffffffffffffffffffffffffffffffffffff0483118215151615612fc357612fc2613164565b5b828202905092915050565b6000612fd982613040565b9150612fe483613040565b925082821015612ff757612ff6613164565b5b828203905092915050565b600061300d82613020565b9050919050565b60008115159050919050565b600073ffffffffffffffffffffffffffffffffffffffff82169050919050565b6000819050919050565b600060ff82169050919050565b60005b8381101561307557808201518184015260208101905061305a565b83811115613084576000848401525b50505050565b600060028204905060018216806130a257607f821691505b602082108114156130b6576130b56131c2565b5b50919050565b60006130c782613040565b91507fffffffffffffffffffffffffffffffffffffffffffffffffffffffffffffffff8214156130fa576130f9613164565b5b600182019050919050565b600061311082613117565b9050919050565b600061312282613202565b9050919050565b6000819050919050565b600061313e82613040565b915061314983613040565b92508261315957613158613193565b5b828206905092915050565b7f4e487b7100000000000000000000000000000000000000000000000000000000600052601160045260246000fd5b7f4e487b7100000000000000000000000000000000000000000000000000000000600052601260045260246000fd5b7f4e487b7100000000000000000000000000000000000000000000000000000000600052602260045260246000fd5b6000601f19601f8301169050919050565b60008160601b9050919050565b7f45524332303a207472616e7366657220746f20746865207a65726f206164647260008201527f6573730000000000000000000000000000000000000000000000000000000000602082015250565b7f4f776e61626c653a206e6577206f776e657220697320746865207a65726f206160008201527f6464726573730000000000000000000000000000000000000000000000000000602082015250565b7f45524332303a20617070726f766520746f20746865207a65726f20616464726560008201527f7373000000000000000000000000000000000000000000000000000000000000602082015250565b7f45524332303a20696e73756666696369656e7420616c6c6f77616e6365000000600082015250565b7f45524332303a207472616e7366657220616d6f756e742065786365656473206260008201527f616c616e63650000000000000000000000000000000000000000000000000000602082015250565b7f546865726520617265206e6f74207469636b657420626f756768742e00000000600082015250565b7f5468652072657175657374656420616d6f756e74206d7573742062652067726560008201527f61746572207468616e207a65726f2e0000000000000000000000000000000000602082015250565b7f54686520616d6f756e742073656e74206973206e6f7420656e6f75676820746f60008201527f20627579207468652072657175657374656420746f6b656e732e000000000000602082015250565b7f546865726520617265206e6f7420656e6f75676820617661696c61626c65207460008201527f6f6b656e7320746f20636f6d706c657465207468652070757263686173652e00602082015250565b7f4f776e61626c653a2063616c6c6572206973206e6f7420746865206f776e6572600082015250565b7f45524332303a207472616e736665722066726f6d20746865207a65726f20616460008201527f6472657373000000000000000000000000000000000000000000000000000000602082015250565b7f596f757220746f6b656e2062616c616e6365206973206e6f7420656e6f75676860008201527f20746f20627579207468697320616d6f756e74206f66204c6f7474657279207460208201527f69636b6574732e00000000000000000000000000000000000000000000000000604082015250565b7f45524332303a20617070726f76652066726f6d20746865207a65726f2061646460008201527f7265737300000000000000000000000000000000000000000000000000000000602082015250565b7f596f757220746f6b656e732062616c616e6365206d757374206265206772656160008201527f746572207468616e207468652072657175657374656420616d6f756e742e0000602082015250565b7f45524332303a2064656372656173656420616c6c6f77616e63652062656c6f7760008201527f207a65726f000000000000000000000000000000000000000000000000000000602082015250565b7f45524332303a206d696e7420746f20746865207a65726f206164647265737300600082015250565b61369681613002565b81146136a157600080fd5b50565b6136ad81613040565b81146136b857600080fd5b5056fea26469706673582212201e8a7b02d010ed5fb4556a9b89abd47c467f44a1967fb63a6ed9d9f6b285ccfa64736f6c6343000804003360806040523480156200001157600080fd5b5060405162002ede38038062002ede833981810160405281019062000037919062000279565b6040518060400160405280600f81526020017f4c6f7474657279205469636b65747300000000000000000000000000000000008152506040518060400160405280600581526020017f4c5449434b0000000000000000000000000000000000000000000000000000008152508160009080519060200190620000bb929190620001b2565b508060019080519060200190620000d4929190620001b2565b50505060405180604001604052808273ffffffffffffffffffffffffffffffffffffffff1681526020013073ffffffffffffffffffffffffffffffffffffffff16815250600660008201518160000160006101000a81548173ffffffffffffffffffffffffffffffffffffffff021916908373ffffffffffffffffffffffffffffffffffffffff16021790555060208201518160010160006101000a81548173ffffffffffffffffffffffffffffffffffffffff021916908373ffffffffffffffffffffffffffffffffffffffff1602179055509050505062000358565b828054620001c090620002d9565b90600052602060002090601f016020900481019282620001e4576000855562000230565b82601f10620001ff57805160ff191683800117855562000230565b8280016001018555821562000230579182015b828111156200022f57825182559160200191906001019062000212565b5b5090506200023f919062000243565b5090565b5b808211156200025e57600081600090555060010162000244565b5090565b60008151905062000273816200033e565b92915050565b6000602082840312156200028c57600080fd5b60006200029c8482850162000262565b91505092915050565b6000620002b282620002b9565b9050919050565b600073ffffffffffffffffffffffffffffffffffffffff82169050919050565b60006002820490506001821680620002f257607f821691505b602082108114156200030957620003086200030f565b5b50919050565b7f4e487b7100000000000000000000000000000000000000000000000000000000600052602260045260246000fd5b6200034981620002a5565b81146200035557600080fd5b50565b612b7680620003686000396000f3fe608060405234801561001057600080fd5b50600436106101005760003560e01c806354b4380f11610097578063a22cb46511610066578063a22cb465146102ac578063b88d4fde146102c8578063c87b56dd146102e4578063e985e9c51461031457610100565b806354b4380f146102125780636352211e1461022e57806370a082311461025e57806395d89b411461028e57610100565b806323b872dd116100d357806323b872dd1461019f57806338724e6a146101bb5780633cca2420146101d757806342842e0e146101f657610100565b806301ffc9a71461010557806306fdde0314610135578063081812fc14610153578063095ea7b314610183575b600080fd5b61011f600480360381019061011a9190611c2b565b610344565b60405161012c919061205a565b60405180910390f35b61013d610426565b60405161014a9190612075565b60405180910390f35b61016d60048036038101906101689190611c7d565b6104b8565b60405161017a9190611fca565b60405180910390f35b61019d60048036038101906101989190611bef565b61053d565b005b6101b960048036038101906101b49190611ae9565b610655565b005b6101d560048036038101906101d09190611bef565b6106b5565b005b6101df610756565b6040516101ed929190611fe5565b60405180910390f35b610210600480360381019061020b9190611ae9565b6107a8565b005b61022c60048036038101906102279190611c7d565b6107c8565b005b61024860048036038101906102439190611c7d565b610867565b6040516102559190611fca565b60405180910390f35b61027860048036038101906102739190611a84565b610919565b6040516102859190612297565b60405180910390f35b6102966109d1565b6040516102a39190612075565b60405180910390f35b6102c660048036038101906102c19190611bb3565b610a63565b005b6102e260048036038101906102dd9190611b38565b610a79565b005b6102fe60048036038101906102f99190611c7d565b610adb565b60405161030b9190612075565b60405180910390f35b61032e60048036038101906103299190611aad565b610b82565b60405161033b919061205a565b60405180910390f35b60007f80ac58cd000000000000000000000000000000000000000000000000000000007bffffffffffffffffffffffffffffffffffffffffffffffffffffffff1916827bffffffffffffffffffffffffffffffffffffffffffffffffffffffff1916148061040f57507f5b5e139f000000000000000000000000000000000000000000000000000000007bffffffffffffffffffffffffffffffffffffffffffffffffffffffff1916827bffffffffffffffffffffffffffffffffffffffffffffffffffffffff1916145b8061041f575061041e82610c16565b5b9050919050565b606060008054610435906124bc565b80601f0160208091040260200160405190810160405280929190818152602001828054610461906124bc565b80156104ae5780601f10610483576101008083540402835291602001916104ae565b820191906000526020600020905b81548152906001019060200180831161049157829003601f168201915b5050505050905090565b60006104c382610c80565b610502576040517f08c379a00000000000000000000000000000000000000000000000000000000081526004016104f9906121f7565b60405180910390fd5b6004600083815260200190815260200160002060009054906101000a900473ffffffffffffffffffffffffffffffffffffffff169050919050565b600061054882610867565b90508073ffffffffffffffffffffffffffffffffffffffff168373ffffffffffffffffffffffffffffffffffffffff1614156105b9576040517f08c379a00000000000000000000000000000000000000000000000000000000081526004016105b090612257565b60405180910390fd5b8073ffffffffffffffffffffffffffffffffffffffff166105d8610cec565b73ffffffffffffffffffffffffffffffffffffffff161480610607575061060681610601610cec565b610b82565b5b610646576040517f08c379a000000000000000000000000000000000000000000000000000000000815260040161063d90612177565b60405180910390fd5b6106508383610cf4565b505050565b610666610660610cec565b82610dad565b6106a5576040517f08c379a000000000000000000000000000000000000000000000000000000000815260040161069c90612277565b60405180910390fd5b6106b0838383610e8b565b505050565b600660000160009054906101000a900473ffffffffffffffffffffffffffffffffffffffff1673ffffffffffffffffffffffffffffffffffffffff163373ffffffffffffffffffffffffffffffffffffffff1614610748576040517f08c379a000000000000000000000000000000000000000000000000000000000815260040161073f90612217565b60405180910390fd5b61075282826110f2565b5050565b60068060000160009054906101000a900473ffffffffffffffffffffffffffffffffffffffff16908060010160009054906101000a900473ffffffffffffffffffffffffffffffffffffffff16905082565b6107c383838360405180602001604052806000815250610a79565b505050565b600660000160009054906101000a900473ffffffffffffffffffffffffffffffffffffffff1673ffffffffffffffffffffffffffffffffffffffff163373ffffffffffffffffffffffffffffffffffffffff161461085b576040517f08c379a000000000000000000000000000000000000000000000000000000000815260040161085290612097565b60405180910390fd5b61086481611110565b50565b6000806002600084815260200190815260200160002060009054906101000a900473ffffffffffffffffffffffffffffffffffffffff169050600073ffffffffffffffffffffffffffffffffffffffff168173ffffffffffffffffffffffffffffffffffffffff161415610910576040517f08c379a0000000000000000000000000000000000000000000000000000000008152600401610907906121b7565b60405180910390fd5b80915050919050565b60008073ffffffffffffffffffffffffffffffffffffffff168273ffffffffffffffffffffffffffffffffffffffff16141561098a576040517f08c379a000000000000000000000000000000000000000000000000000000000815260040161098190612197565b60405180910390fd5b600360008373ffffffffffffffffffffffffffffffffffffffff1673ffffffffffffffffffffffffffffffffffffffff168152602001908152602001600020549050919050565b6060600180546109e0906124bc565b80601f0160208091040260200160405190810160405280929190818152602001828054610a0c906124bc565b8015610a595780601f10610a2e57610100808354040283529160200191610a59565b820191906000526020600020905b815481529060010190602001808311610a3c57829003601f168201915b5050505050905090565b610a75610a6e610cec565b838361122d565b5050565b610a8a610a84610cec565b83610dad565b610ac9576040517f08c379a0000000000000000000000000000000000000000000000000000000008152600401610ac090612277565b60405180910390fd5b610ad58484848461139a565b50505050565b6060610ae682610c80565b610b25576040517f08c379a0000000000000000000000000000000000000000000000000000000008152600401610b1c90612237565b60405180910390fd5b6000610b2f6113f6565b90506000815111610b4f5760405180602001604052806000815250610b7a565b80610b598461140d565b604051602001610b6a929190611fa6565b6040516020818303038152906040525b915050919050565b6000600560008473ffffffffffffffffffffffffffffffffffffffff1673ffffffffffffffffffffffffffffffffffffffff16815260200190815260200160002060008373ffffffffffffffffffffffffffffffffffffffff1673ffffffffffffffffffffffffffffffffffffffff16815260200190815260200160002060009054906101000a900460ff16905092915050565b60007f01ffc9a7000000000000000000000000000000000000000000000000000000007bffffffffffffffffffffffffffffffffffffffffffffffffffffffff1916827bffffffffffffffffffffffffffffffffffffffffffffffffffffffff1916149050919050565b60008073ffffffffffffffffffffffffffffffffffffffff166002600084815260200190815260200160002060009054906101000a900473ffffffffffffffffffffffffffffffffffffffff1673ffffffffffffffffffffffffffffffffffffffff1614159050919050565b600033905090565b816004600083815260200190815260200160002060006101000a81548173ffffffffffffffffffffffffffffffffffffffff021916908373ffffffffffffffffffffffffffffffffffffffff160217905550808273ffffffffffffffffffffffffffffffffffffffff16610d6783610867565b73ffffffffffffffffffffffffffffffffffffffff167f8c5be1e5ebec7d5bd14f71427d1e84f3dd0314c0f7b2291e5b200ac8c7c3b92560405160405180910390a45050565b6000610db882610c80565b610df7576040517f08c379a0000000000000000000000000000000000000000000000000000000008152600401610dee90612157565b60405180910390fd5b6000610e0283610867565b90508073ffffffffffffffffffffffffffffffffffffffff168473ffffffffffffffffffffffffffffffffffffffff161480610e7157508373ffffffffffffffffffffffffffffffffffffffff16610e59846104b8565b73ffffffffffffffffffffffffffffffffffffffff16145b80610e825750610e818185610b82565b5b91505092915050565b8273ffffffffffffffffffffffffffffffffffffffff16610eab82610867565b73ffffffffffffffffffffffffffffffffffffffff1614610f01576040517f08c379a0000000000000000000000000000000000000000000000000000000008152600401610ef8906120d7565b60405180910390fd5b600073ffffffffffffffffffffffffffffffffffffffff168273ffffffffffffffffffffffffffffffffffffffff161415610f71576040517f08c379a0000000000000000000000000000000000000000000000000000000008152600401610f6890612117565b60405180910390fd5b610f7c8383836115ba565b610f87600082610cf4565b6001600360008573ffffffffffffffffffffffffffffffffffffffff1673ffffffffffffffffffffffffffffffffffffffff1681526020019081526020016000206000828254610fd791906123d2565b925050819055506001600360008473ffffffffffffffffffffffffffffffffffffffff1673ffffffffffffffffffffffffffffffffffffffff168152602001908152602001600020600082825461102e919061234b565b92505081905550816002600083815260200190815260200160002060006101000a81548173ffffffffffffffffffffffffffffffffffffffff021916908373ffffffffffffffffffffffffffffffffffffffff160217905550808273ffffffffffffffffffffffffffffffffffffffff168473ffffffffffffffffffffffffffffffffffffffff167fddf252ad1be2c89b69c2b068fc378daa952ba7f163c4a11628f55a4df523b3ef60405160405180910390a46110ed8383836115bf565b505050565b61110c8282604051806020016040528060008152506115c4565b5050565b600061111b82610867565b9050611129816000846115ba565b611134600083610cf4565b6001600360008373ffffffffffffffffffffffffffffffffffffffff1673ffffffffffffffffffffffffffffffffffffffff168152602001908152602001600020600082825461118491906123d2565b925050819055506002600083815260200190815260200160002060006101000a81549073ffffffffffffffffffffffffffffffffffffffff021916905581600073ffffffffffffffffffffffffffffffffffffffff168273ffffffffffffffffffffffffffffffffffffffff167fddf252ad1be2c89b69c2b068fc378daa952ba7f163c4a11628f55a4df523b3ef60405160405180910390a4611229816000846115bf565b5050565b8173ffffffffffffffffffffffffffffffffffffffff168373ffffffffffffffffffffffffffffffffffffffff16141561129c576040517f08c379a000000000000000000000000000000000000000000000000000000000815260040161129390612137565b60405180910390fd5b80600560008573ffffffffffffffffffffffffffffffffffffffff1673ffffffffffffffffffffffffffffffffffffffff16815260200190815260200160002060008473ffffffffffffffffffffffffffffffffffffffff1673ffffffffffffffffffffffffffffffffffffffff16815260200190815260200160002060006101000a81548160ff0219169083151502179055508173ffffffffffffffffffffffffffffffffffffffff168373ffffffffffffffffffffffffffffffffffffffff167f17307eab39ab6107e8899845ad3d59bd9653f200f220920489ca2b5937696c318360405161138d919061205a565b60405180910390a3505050565b6113a5848484610e8b565b6113b18484848461161f565b6113f0576040517f08c379a00000000000000000000000000000000000000000000000000000000081526004016113e7906120b7565b60405180910390fd5b50505050565b606060405180602001604052806000815250905090565b60606000821415611455576040518060400160405280600181526020017f300000000000000000000000000000000000000000000000000000000000000081525090506115b5565b600082905060005b600082146114875780806114709061251f565b915050600a8261148091906123a1565b915061145d565b60008167ffffffffffffffff8111156114c9577f4e487b7100000000000000000000000000000000000000000000000000000000600052604160045260246000fd5b6040519080825280601f01601f1916602001820160405280156114fb5781602001600182028036833780820191505090505b5090505b600085146115ae5760018261151491906123d2565b9150600a856115239190612568565b603061152f919061234b565b60f81b81838151811061156b577f4e487b7100000000000000000000000000000000000000000000000000000000600052603260045260246000fd5b60200101907effffffffffffffffffffffffffffffffffffffffffffffffffffffffffffff1916908160001a905350600a856115a791906123a1565b94506114ff565b8093505050505b919050565b505050565b505050565b6115ce83836117b6565b6115db600084848461161f565b61161a576040517f08c379a0000000000000000000000000000000000000000000000000000000008152600401611611906120b7565b60405180910390fd5b505050565b60006116408473ffffffffffffffffffffffffffffffffffffffff16611990565b156117a9578373ffffffffffffffffffffffffffffffffffffffff1663150b7a02611669610cec565b8786866040518563ffffffff1660e01b815260040161168b949392919061200e565b602060405180830381600087803b1580156116a557600080fd5b505af19250505080156116d657506040513d601f19601f820116820180604052508101906116d39190611c54565b60015b611759573d8060008114611706576040519150601f19603f3d011682016040523d82523d6000602084013e61170b565b606091505b50600081511415611751576040517f08c379a0000000000000000000000000000000000000000000000000000000008152600401611748906120b7565b60405180910390fd5b805181602001fd5b63150b7a0260e01b7bffffffffffffffffffffffffffffffffffffffffffffffffffffffff1916817bffffffffffffffffffffffffffffffffffffffffffffffffffffffff1916149150506117ae565b600190505b949350505050565b600073ffffffffffffffffffffffffffffffffffffffff168273ffffffffffffffffffffffffffffffffffffffff161415611826576040517f08c379a000000000000000000000000000000000000000000000000000000000815260040161181d906121d7565b60405180910390fd5b61182f81610c80565b1561186f576040517f08c379a0000000000000000000000000000000000000000000000000000000008152600401611866906120f7565b60405180910390fd5b61187b600083836115ba565b6001600360008473ffffffffffffffffffffffffffffffffffffffff1673ffffffffffffffffffffffffffffffffffffffff16815260200190815260200160002060008282546118cb919061234b565b92505081905550816002600083815260200190815260200160002060006101000a81548173ffffffffffffffffffffffffffffffffffffffff021916908373ffffffffffffffffffffffffffffffffffffffff160217905550808273ffffffffffffffffffffffffffffffffffffffff16600073ffffffffffffffffffffffffffffffffffffffff167fddf252ad1be2c89b69c2b068fc378daa952ba7f163c4a11628f55a4df523b3ef60405160405180910390a461198c600083836115bf565b5050565b6000808273ffffffffffffffffffffffffffffffffffffffff163b119050919050565b60006119c66119c1846122d7565b6122b2565b9050828152602081018484840111156119de57600080fd5b6119e984828561247a565b509392505050565b600081359050611a0081612ae4565b92915050565b600081359050611a1581612afb565b92915050565b600081359050611a2a81612b12565b92915050565b600081519050611a3f81612b12565b92915050565b600082601f830112611a5657600080fd5b8135611a668482602086016119b3565b91505092915050565b600081359050611a7e81612b29565b92915050565b600060208284031215611a9657600080fd5b6000611aa4848285016119f1565b91505092915050565b60008060408385031215611ac057600080fd5b6000611ace858286016119f1565b9250506020611adf858286016119f1565b9150509250929050565b600080600060608486031215611afe57600080fd5b6000611b0c868287016119f1565b9350506020611b1d868287016119f1565b9250506040611b2e86828701611a6f565b9150509250925092565b60008060008060808587031215611b4e57600080fd5b6000611b5c878288016119f1565b9450506020611b6d878288016119f1565b9350506040611b7e87828801611a6f565b925050606085013567ffffffffffffffff811115611b9b57600080fd5b611ba787828801611a45565b91505092959194509250565b60008060408385031215611bc657600080fd5b6000611bd4858286016119f1565b9250506020611be585828601611a06565b9150509250929050565b60008060408385031215611c0257600080fd5b6000611c10858286016119f1565b9250506020611c2185828601611a6f565b9150509250929050565b600060208284031215611c3d57600080fd5b6000611c4b84828501611a1b565b91505092915050565b600060208284031215611c6657600080fd5b6000611c7484828501611a30565b91505092915050565b600060208284031215611c8f57600080fd5b6000611c9d84828501611a6f565b91505092915050565b611caf81612406565b82525050565b611cbe81612418565b82525050565b6000611ccf82612308565b611cd9818561231e565b9350611ce9818560208601612489565b611cf281612655565b840191505092915050565b6000611d0882612313565b611d12818561232f565b9350611d22818560208601612489565b611d2b81612655565b840191505092915050565b6000611d4182612313565b611d4b8185612340565b9350611d5b818560208601612489565b80840191505092915050565b6000611d7460278361232f565b9150611d7f82612666565b604082019050919050565b6000611d9760328361232f565b9150611da2826126b5565b604082019050919050565b6000611dba60258361232f565b9150611dc582612704565b604082019050919050565b6000611ddd601c8361232f565b9150611de882612753565b602082019050919050565b6000611e0060248361232f565b9150611e0b8261277c565b604082019050919050565b6000611e2360198361232f565b9150611e2e826127cb565b602082019050919050565b6000611e46602c8361232f565b9150611e51826127f4565b604082019050919050565b6000611e6960388361232f565b9150611e7482612843565b604082019050919050565b6000611e8c602a8361232f565b9150611e9782612892565b604082019050919050565b6000611eaf60298361232f565b9150611eba826128e1565b604082019050919050565b6000611ed260208361232f565b9150611edd82612930565b602082019050919050565b6000611ef5602c8361232f565b9150611f0082612959565b604082019050919050565b6000611f1860278361232f565b9150611f23826129a8565b604082019050919050565b6000611f3b602f8361232f565b9150611f46826129f7565b604082019050919050565b6000611f5e60218361232f565b9150611f6982612a46565b604082019050919050565b6000611f8160318361232f565b9150611f8c82612a95565b604082019050919050565b611fa081612470565b82525050565b6000611fb28285611d36565b9150611fbe8284611d36565b91508190509392505050565b6000602082019050611fdf6000830184611ca6565b92915050565b6000604082019050611ffa6000830185611ca6565b6120076020830184611ca6565b9392505050565b60006080820190506120236000830187611ca6565b6120306020830186611ca6565b61203d6040830185611f97565b818103606083015261204f8184611cc4565b905095945050505050565b600060208201905061206f6000830184611cb5565b92915050565b6000602082019050818103600083015261208f8184611cfd565b905092915050565b600060208201905081810360008301526120b081611d67565b9050919050565b600060208201905081810360008301526120d081611d8a565b9050919050565b600060208201905081810360008301526120f081611dad565b9050919050565b6000602082019050818103600083015261211081611dd0565b9050919050565b6000602082019050818103600083015261213081611df3565b9050919050565b6000602082019050818103600083015261215081611e16565b9050919050565b6000602082019050818103600083015261217081611e39565b9050919050565b6000602082019050818103600083015261219081611e5c565b9050919050565b600060208201905081810360008301526121b081611e7f565b9050919050565b600060208201905081810360008301526121d081611ea2565b9050919050565b600060208201905081810360008301526121f081611ec5565b9050919050565b6000602082019050818103600083015261221081611ee8565b9050919050565b6000602082019050818103600083015261223081611f0b565b9050919050565b6000602082019050818103600083015261225081611f2e565b9050919050565b6000602082019050818103600083015261227081611f51565b9050919050565b6000602082019050818103600083015261229081611f74565b9050919050565b60006020820190506122ac6000830184611f97565b92915050565b60006122bc6122cd565b90506122c882826124ee565b919050565b6000604051905090565b600067ffffffffffffffff8211156122f2576122f1612626565b5b6122fb82612655565b9050602081019050919050565b600081519050919050565b600081519050919050565b600082825260208201905092915050565b600082825260208201905092915050565b600081905092915050565b600061235682612470565b915061236183612470565b9250827fffffffffffffffffffffffffffffffffffffffffffffffffffffffffffffffff0382111561239657612395612599565b5b828201905092915050565b60006123ac82612470565b91506123b783612470565b9250826123c7576123c66125c8565b5b828204905092915050565b60006123dd82612470565b91506123e883612470565b9250828210156123fb576123fa612599565b5b828203905092915050565b600061241182612450565b9050919050565b60008115159050919050565b60007fffffffff0000000000000000000000000000000000000000000000000000000082169050919050565b600073ffffffffffffffffffffffffffffffffffffffff82169050919050565b6000819050919050565b82818337600083830152505050565b60005b838110156124a757808201518184015260208101905061248c565b838111156124b6576000848401525b50505050565b600060028204905060018216806124d457607f821691505b602082108114156124e8576124e76125f7565b5b50919050565b6124f782612655565b810181811067ffffffffffffffff8211171561251657612515612626565b5b80604052505050565b600061252a82612470565b91507fffffffffffffffffffffffffffffffffffffffffffffffffffffffffffffffff82141561255d5761255c612599565b5b600182019050919050565b600061257382612470565b915061257e83612470565b92508261258e5761258d6125c8565b5b828206905092915050565b7f4e487b7100000000000000000000000000000000000000000000000000000000600052601160045260246000fd5b7f4e487b7100000000000000000000000000000000000000000000000000000000600052601260045260246000fd5b7f4e487b7100000000000000000000000000000000000000000000000000000000600052602260045260246000fd5b7f4e487b7100000000000000000000000000000000000000000000000000000000600052604160045260246000fd5b6000601f19601f8301169050919050565b7f596f7520617265206e6f7420616c6c6f77656420746f206275726e207468657360008201527f65204e4654732e00000000000000000000000000000000000000000000000000602082015250565b7f4552433732313a207472616e7366657220746f206e6f6e20455243373231526560008201527f63656976657220696d706c656d656e7465720000000000000000000000000000602082015250565b7f4552433732313a207472616e736665722066726f6d20696e636f72726563742060008201527f6f776e6572000000000000000000000000000000000000000000000000000000602082015250565b7f4552433732313a20746f6b656e20616c7265616479206d696e74656400000000600082015250565b7f4552433732313a207472616e7366657220746f20746865207a65726f2061646460008201527f7265737300000000000000000000000000000000000000000000000000000000602082015250565b7f4552433732313a20617070726f766520746f2063616c6c657200000000000000600082015250565b7f4552433732313a206f70657261746f7220717565727920666f72206e6f6e657860008201527f697374656e7420746f6b656e0000000000000000000000000000000000000000602082015250565b7f4552433732313a20617070726f76652063616c6c6572206973206e6f74206f7760008201527f6e6572206e6f7220617070726f76656420666f7220616c6c0000000000000000602082015250565b7f4552433732313a2062616c616e636520717565727920666f7220746865207a6560008201527f726f206164647265737300000000000000000000000000000000000000000000602082015250565b7f4552433732313a206f776e657220717565727920666f72206e6f6e657869737460008201527f656e7420746f6b656e0000000000000000000000000000000000000000000000602082015250565b7f4552433732313a206d696e7420746f20746865207a65726f2061646472657373600082015250565b7f4552433732313a20617070726f76656420717565727920666f72206e6f6e657860008201527f697374656e7420746f6b656e0000000000000000000000000000000000000000602082015250565b7f596f7520617265206e6f7420616c6c6f77656420746f206d696e74207468657360008201527f65204e4654732e00000000000000000000000000000000000000000000000000602082015250565b7f4552433732314d657461646174613a2055524920717565727920666f72206e6f60008201527f6e6578697374656e7420746f6b656e0000000000000000000000000000000000602082015250565b7f4552433732313a20617070726f76616c20746f2063757272656e74206f776e6560008201527f7200000000000000000000000000000000000000000000000000000000000000602082015250565b7f4552433732313a207472616e736665722063616c6c6572206973206e6f74206f60008201527f776e6572206e6f7220617070726f766564000000000000000000000000000000602082015250565b612aed81612406565b8114612af857600080fd5b50565b612b0481612418565b8114612b0f57600080fd5b50565b612b1b81612424565b8114612b2657600080fd5b50565b612b3281612470565b8114612b3d57600080fd5b5056fea26469706673582212208c92309443b6c655d70ee58676153bd4d8d533e7dc3801bf8893c0aa6965191164736f6c63430008040033",
  "immutableReferences": {},
  "source": "// SPDX-License-Identifier: MIT\n\npragma solidity ^0.8.4;\n\nimport \"@openzeppelin/contracts/token/ERC20/ERC20.sol\";\nimport \"@openzeppelin/contracts/token/ERC721/ERC721.sol\";\nimport \"@openzeppelin/contracts/access/Ownable.sol\";\n\n// No importamos el 721 por herencia para evitar conflitos entre ambos contratos\n// ya que muchas de sus funciones comparten nombre.\n\ncontract Lottery is ERC20, Ownable {\n    // ====================================\n    //          Gestin de tokens\n    // ====================================\n\n    // Direcciones de los contratos\n    address public lotteryContract;\n    address public NFTContract;\n\n    // Constructor\n    constructor() ERC20(\"Lottery\", \"LOT\") {\n        _mint(address(this), 100000);\n        NFTContract = address( new NFTTickets(address(this)));\n        lotteryContract = address(this);\n    }\n\n    // Resultado del sorteo\n    address public winnerAddress;\n    uint256 public winnerNumber;\n\n    // Importe del premio\n    uint256 public prizePool;\n\n    // Resultado de sorteos anteriores\n    struct Records {\n        uint timestamp;\n        address winner;\n        uint number;\n        uint prize;\n    }\n\n    Records [] public winners_history;\n\n    function getLotteryRecords() public view returns(Records[] memory) {\n        return winners_history;\n    }\n\n    // Precio de los tokens ERC20\n    function tokenPrice(uint256 _numtokens) internal pure returns (uint256) {\n        return _numtokens * (0.01 ether);\n    }\n\n    // Visualizacin del balance de tokens ERC220 del usuario\n    function tokensBalance(address _account) public view returns (uint256) {\n        return balanceOf(_account);\n    }\n\n    // Visualizacin del balance de tokens ERC220 del SC\n    function tokensBalanceSC() public view returns (uint256) {\n        return balanceOf(address(this));\n    }\n\n    // Visualizacin del balance de ethers del SC\n    function ethersBalanceSC() public view returns (uint256) {\n        return address(this).balance;\n    }\n\n    // Generacin de nuevos tokens ERC20\n    function _mintNewTokens(uint256 amount) public onlyOwner returns (bool) {\n        _mint(address(this), amount);\n        return true;\n    }\n\n    // Compra de tokens ERC20\n    function buyTokens(uint256 _amount) public payable {\n        // Establecimiento del coste de los token a comprar.\n        uint256 tokensCost = tokenPrice(_amount);\n        // Evaluacin del envo de Ether por parte del usuario.\n        require(msg.value >= tokensCost,\"The amount sent is not enough to buy the requested tokens.\");\n        // Obtencion del nmero de tokens disponibles\n        uint256 availableTokens = tokensBalanceSC();\n        // Evaluacin de los tokens ERC20 disponibles para su venta\n        require(availableTokens >= _amount,\"There are not enough available tokens to complete the purchase.\");\n        // Devolucin de los ethers sobrantes en la compra\n        uint256 returnValue = msg.value - tokensCost;\n        // El Smart Contract devuelve los ethers sobrantes\n        payable(msg.sender).transfer(returnValue);\n        // Enviamos los Tokens ERC20 al usuario\n        _transfer(address(this), msg.sender, _amount);\n    }\n\n    // Devolucin de tokens ERC20 al SC.\n    function returnTokens(uint256 _amount) public payable {\n        // El numero de tokens debe ser mayor a 0\n        require(_amount > 0, \"The requested amount must be greater than zero.\");\n        // El usuario debe tener la cantidad de tokens a devolver.\n        require(tokensBalance(msg.sender) >= _amount,\"Your tokens balance must be greater than the requested amount.\");\n        // El usuario transfiere los tokens al SC.\n        _transfer(msg.sender, address(this), _amount);\n        // El SC enva los ethers al usuario.\n        uint256 tokensCost = tokenPrice(_amount);\n        payable(msg.sender).transfer(tokensCost);\n    }\n\n    // ====================================\n    //        Gestin de la loteria\n    // ====================================\n\n    // Precio del boleto de lotera en tokens ERC20\n    uint256 public ticketPrice = 1;\n\n    // Array de participantes \n    address[] players;\n    \n    // Array de boletos de lotera generados\n    uint256[] generatedTickets;\n\n    // Relacin persona que compra boletos con los nmeros de los boletos comprados\n    mapping(address => uint256[]) owner_tickets;\n\n    // Relacin boleto con ganador\n    mapping(uint256 => address) ticket_owner;\n\n    // Nmeros aleatorio\n    uint256 randNonce = 0;\n\n    function getGeneratedTickets() public view returns(uint[] memory) {\n        return generatedTickets;\n    }\n\n    function getPlayers() public view returns(address[] memory) {\n        return players;\n    }\n\n    // Compra de boletos de lotera\n    function buyTickets(uint256 _amount) public {\n        uint256 totalTokensPrice = _amount * ticketPrice;\n        prizePool += _amount * tokenPrice(1);\n        require(tokensBalance(msg.sender) >= totalTokensPrice,\"Your token balance is not enough to buy this amount of Lottery tickets.\");\n        // Transferencia de tokens al SC.\n        _transfer(msg.sender, address(this), totalTokensPrice);\n        // Minteo de los tickets para el usuario\n        for (uint256 i; i < _amount; i++) {\n            // Declaramos el nmero random y el controlador nico\n            bool unique = false;\n            uint256 random;\n            // Generamos boletos hasta que este sea nico.\n            while (!unique) {\n                random = uint256(keccak256(abi.encodePacked(block.timestamp, msg.sender, randNonce))) % 100000;\n                randNonce++;\n                // comprobamos que el boleto sea nico\n                if (ticket_owner[random] == address(0)) { unique = true; }\n            }\n            // Almacenamos el jugador en el array en caso de no estar\n            if (owner_tickets[msg.sender].length == 0) { players.push(msg.sender); }\n            // Almacenamiento de los datos del boleto enlazado al usuario\n            owner_tickets[msg.sender].push(random);\n            // Almacenamiento de los datos de los boletos\n            generatedTickets.push(random);\n            // Asignacin del nmero del boleto a su Owner.\n            ticket_owner[random] = msg.sender;\n            // Creacin de un nuevo NFT para ese nmero de boleto\n            NFTTickets(NFTContract).TicketMint(msg.sender, random);\n        }\n    }\n\n    // Visualizacin de los boletos del usuario\n    function getTickets(address _address) public view returns (uint256[] memory) {\n        return owner_tickets[_address];\n    }\n\n    // Generacion del ganador de la loteria (not onlyOwner)\n    function getLotteryWinner() public {\n        // Generamos un nmero aleatorio entre el total de tickets comprados\n        uint256 totalTickets = generatedTickets.length;\n        // Verificamos si se ha vendido al menos 1 boleto\n        require(totalTickets > 0, \"There are not ticket bought.\");\n        // Eleccin aleatoria entre 0 y el nmero total de boletos comprados\n        uint256 random = uint256(uint256(keccak256(abi.encodePacked(block.timestamp))) % totalTickets);\n        // Seleccin del nmero aleatorio\n        winnerNumber = generatedTickets[random];\n        // Direccin del ganador\n        winnerAddress = ticket_owner[winnerNumber];\n        // Envo del 95% de la recaudacin de la lotera al ganador\n        uint256 prize = (prizePool / 100) * 95;\n        payable(winnerAddress).transfer(prize);\n        // Envo del beneficio al Owner\n        uint256 fee = prizePool - prize;\n        payable(owner()).transfer(fee);\n        // Guardamos la info del ganador\n        Records memory current_lottery = Records(block.timestamp, winnerAddress, winnerNumber, prizePool);\n        winners_history.push(current_lottery);\n        // Vaciado de la PoolPrize\n        prizePool = 0;\n        //delete owner_tickets (mapping)\n        for (uint i=0; i<players.length; i++) {\n            delete owner_tickets[players[i]];\n        }\n        //delete ticket_owner (mapping) y quema de los NFTs\n        for (uint x=0; x<generatedTickets.length; x++) {\n            ticket_owner[generatedTickets[x]] = address(0);\n            NFTTickets(NFTContract).ticketBurn(generatedTickets[x]);\n        }\n        //Delete tickets and players array\n        delete generatedTickets;\n        delete players;\n    }\n}\n\n// Smart Contract de NFTs\ncontract NFTTickets is ERC721 {\n    \n    // Datos relevantes del propietario\n    struct Contract {\n        address lotteryContractAddress;\n        address NFTTicketsContractAddress;\n    }\n\n    Contract public contractData;\n\n    constructor(address _lotteryContract) ERC721(\"Lottery Tickets\", \"LTICK\") {\n        contractData = Contract(_lotteryContract, address(this));\n    }\n\n    // Creacin de los NFTs\n    function TicketMint(address _owner, uint256 _ticket) public {\n        // Esta funcin al ser llamada en un contrato declarado SIN HERENCIA\n        // debe ser pblica, no sirve como internal.\n        // Si es el contrato principal el que llama a esta funcin y la direccin de ESTE contrato\n        // es la direccin del contrato NFTTicket del owner permitimos el mint\n        require((msg.sender == contractData.lotteryContractAddress),\"You are not allowed to mint these NFTs.\");\n        _safeMint(_owner, _ticket);\n    }\n\n    // Quemado de los NFTs\n    function ticketBurn(uint256 _ticket) public {\n        require((msg.sender == contractData.lotteryContractAddress),\"You are not allowed to burn these NFTs.\");\n        _burn(_ticket);\n    }\n}\n",
  "sourcePath": "/Users/gush/Documents/Desarrollo/Web3/Formacion/Proyectos/BCLottery/src/contracts/lottery.sol",
  "compiler": {
    "name": "solc",
    "version": "0.8.4+commit.c7e474f2.Emscripten.clang"
  },
  "schemaVersion": "3.4.8",
  "updatedAt": "2022-08-21T22:28:16.214Z",
  "networkType": "ethereum",
  "devdoc": {
    "kind": "dev",
    "methods": {
      "allowance(address,address)": {
        "details": "See {IERC20-allowance}."
      },
      "approve(address,uint256)": {
        "details": "See {IERC20-approve}. NOTE: If `amount` is the maximum `uint256`, the allowance is not updated on `transferFrom`. This is semantically equivalent to an infinite approval. Requirements: - `spender` cannot be the zero address."
      },
      "balanceOf(address)": {
        "details": "See {IERC20-balanceOf}."
      },
      "decimals()": {
        "details": "Returns the number of decimals used to get its user representation. For example, if `decimals` equals `2`, a balance of `505` tokens should be displayed to a user as `5.05` (`505 / 10 ** 2`). Tokens usually opt for a value of 18, imitating the relationship between Ether and Wei. This is the value {ERC20} uses, unless this function is overridden; NOTE: This information is only used for _display_ purposes: it in no way affects any of the arithmetic of the contract, including {IERC20-balanceOf} and {IERC20-transfer}."
      },
      "decreaseAllowance(address,uint256)": {
        "details": "Atomically decreases the allowance granted to `spender` by the caller. This is an alternative to {approve} that can be used as a mitigation for problems described in {IERC20-approve}. Emits an {Approval} event indicating the updated allowance. Requirements: - `spender` cannot be the zero address. - `spender` must have allowance for the caller of at least `subtractedValue`."
      },
      "increaseAllowance(address,uint256)": {
        "details": "Atomically increases the allowance granted to `spender` by the caller. This is an alternative to {approve} that can be used as a mitigation for problems described in {IERC20-approve}. Emits an {Approval} event indicating the updated allowance. Requirements: - `spender` cannot be the zero address."
      },
      "name()": {
        "details": "Returns the name of the token."
      },
      "owner()": {
        "details": "Returns the address of the current owner."
      },
      "renounceOwnership()": {
        "details": "Leaves the contract without owner. It will not be possible to call `onlyOwner` functions anymore. Can only be called by the current owner. NOTE: Renouncing ownership will leave the contract without an owner, thereby removing any functionality that is only available to the owner."
      },
      "symbol()": {
        "details": "Returns the symbol of the token, usually a shorter version of the name."
      },
      "totalSupply()": {
        "details": "See {IERC20-totalSupply}."
      },
      "transfer(address,uint256)": {
        "details": "See {IERC20-transfer}. Requirements: - `to` cannot be the zero address. - the caller must have a balance of at least `amount`."
      },
      "transferFrom(address,address,uint256)": {
        "details": "See {IERC20-transferFrom}. Emits an {Approval} event indicating the updated allowance. This is not required by the EIP. See the note at the beginning of {ERC20}. NOTE: Does not update the allowance if the current allowance is the maximum `uint256`. Requirements: - `from` and `to` cannot be the zero address. - `from` must have a balance of at least `amount`. - the caller must have allowance for ``from``'s tokens of at least `amount`."
      },
      "transferOwnership(address)": {
        "details": "Transfers ownership of the contract to a new account (`newOwner`). Can only be called by the current owner."
      }
    },
    "version": 1
  },
  "userdoc": {
    "kind": "user",
    "methods": {},
    "version": 1
  }
}