{
  "contractName": "mainERC721",
  "abi": [
    {
      "inputs": [],
      "stateMutability": "nonpayable",
      "type": "constructor"
    },
    {
      "anonymous": false,
      "inputs": [
        {
          "indexed": true,
          "internalType": "address",
          "name": "owner",
          "type": "address"
        },
        {
          "indexed": true,
          "internalType": "address",
          "name": "approved",
          "type": "address"
        },
        {
          "indexed": true,
          "internalType": "uint256",
          "name": "tokenId",
          "type": "uint256"
        }
      ],
      "name": "Approval",
      "type": "event"
    },
    {
      "anonymous": false,
      "inputs": [
        {
          "indexed": true,
          "internalType": "address",
          "name": "owner",
          "type": "address"
        },
        {
          "indexed": true,
          "internalType": "address",
          "name": "operator",
          "type": "address"
        },
        {
          "indexed": false,
          "internalType": "bool",
          "name": "approved",
          "type": "bool"
        }
      ],
      "name": "ApprovalForAll",
      "type": "event"
    },
    {
      "anonymous": false,
      "inputs": [
        {
          "indexed": true,
          "internalType": "address",
          "name": "from",
          "type": "address"
        },
        {
          "indexed": true,
          "internalType": "address",
          "name": "to",
          "type": "address"
        },
        {
          "indexed": true,
          "internalType": "uint256",
          "name": "tokenId",
          "type": "uint256"
        }
      ],
      "name": "Transfer",
      "type": "event"
    },
    {
      "inputs": [
        {
          "internalType": "address",
          "name": "to",
          "type": "address"
        },
        {
          "internalType": "uint256",
          "name": "tokenId",
          "type": "uint256"
        }
      ],
      "name": "approve",
      "outputs": [],
      "stateMutability": "nonpayable",
      "type": "function"
    },
    {
      "inputs": [
        {
          "internalType": "address",
          "name": "owner",
          "type": "address"
        }
      ],
      "name": "balanceOf",
      "outputs": [
        {
          "internalType": "uint256",
          "name": "",
          "type": "uint256"
        }
      ],
      "stateMutability": "view",
      "type": "function"
    },
    {
      "inputs": [
        {
          "internalType": "uint256",
          "name": "tokenId",
          "type": "uint256"
        }
      ],
      "name": "getApproved",
      "outputs": [
        {
          "internalType": "address",
          "name": "",
          "type": "address"
        }
      ],
      "stateMutability": "view",
      "type": "function"
    },
    {
      "inputs": [
        {
          "internalType": "address",
          "name": "owner",
          "type": "address"
        },
        {
          "internalType": "address",
          "name": "operator",
          "type": "address"
        }
      ],
      "name": "isApprovedForAll",
      "outputs": [
        {
          "internalType": "bool",
          "name": "",
          "type": "bool"
        }
      ],
      "stateMutability": "view",
      "type": "function"
    },
    {
      "inputs": [],
      "name": "name",
      "outputs": [
        {
          "internalType": "string",
          "name": "",
          "type": "string"
        }
      ],
      "stateMutability": "view",
      "type": "function"
    },
    {
      "inputs": [
        {
          "internalType": "uint256",
          "name": "tokenId",
          "type": "uint256"
        }
      ],
      "name": "ownerOf",
      "outputs": [
        {
          "internalType": "address",
          "name": "",
          "type": "address"
        }
      ],
      "stateMutability": "view",
      "type": "function"
    },
    {
      "inputs": [
        {
          "internalType": "address",
          "name": "from",
          "type": "address"
        },
        {
          "internalType": "address",
          "name": "to",
          "type": "address"
        },
        {
          "internalType": "uint256",
          "name": "tokenId",
          "type": "uint256"
        }
      ],
      "name": "safeTransferFrom",
      "outputs": [],
      "stateMutability": "nonpayable",
      "type": "function"
    },
    {
      "inputs": [
        {
          "internalType": "address",
          "name": "from",
          "type": "address"
        },
        {
          "internalType": "address",
          "name": "to",
          "type": "address"
        },
        {
          "internalType": "uint256",
          "name": "tokenId",
          "type": "uint256"
        },
        {
          "internalType": "bytes",
          "name": "_data",
          "type": "bytes"
        }
      ],
      "name": "safeTransferFrom",
      "outputs": [],
      "stateMutability": "nonpayable",
      "type": "function"
    },
    {
      "inputs": [
        {
          "internalType": "address",
          "name": "operator",
          "type": "address"
        },
        {
          "internalType": "bool",
          "name": "approved",
          "type": "bool"
        }
      ],
      "name": "setApprovalForAll",
      "outputs": [],
      "stateMutability": "nonpayable",
      "type": "function"
    },
    {
      "inputs": [
        {
          "internalType": "bytes4",
          "name": "interfaceId",
          "type": "bytes4"
        }
      ],
      "name": "supportsInterface",
      "outputs": [
        {
          "internalType": "bool",
          "name": "",
          "type": "bool"
        }
      ],
      "stateMutability": "view",
      "type": "function"
    },
    {
      "inputs": [],
      "name": "symbol",
      "outputs": [
        {
          "internalType": "string",
          "name": "",
          "type": "string"
        }
      ],
      "stateMutability": "view",
      "type": "function"
    },
    {
      "inputs": [
        {
          "internalType": "uint256",
          "name": "tokenId",
          "type": "uint256"
        }
      ],
      "name": "tokenURI",
      "outputs": [
        {
          "internalType": "string",
          "name": "",
          "type": "string"
        }
      ],
      "stateMutability": "view",
      "type": "function"
    },
    {
      "inputs": [
        {
          "internalType": "address",
          "name": "from",
          "type": "address"
        },
        {
          "internalType": "address",
          "name": "to",
          "type": "address"
        },
        {
          "internalType": "uint256",
          "name": "tokenId",
          "type": "uint256"
        }
      ],
      "name": "transferFrom",
      "outputs": [],
      "stateMutability": "nonpayable",
      "type": "function"
    },
    {
      "inputs": [
        {
          "internalType": "address",
          "name": "_owner",
          "type": "address"
        },
        {
          "internalType": "uint256",
          "name": "_ticketNumber",
          "type": "uint256"
        }
      ],
      "name": "safeMint",
      "outputs": [],
      "stateMutability": "nonpayable",
      "type": "function"
    }
  ],
  "bytecode": "0x60806040523480156200001157600080fd5b506040518060400160405280600f81526020017f4c6f7474657279205469636b65747300000000000000000000000000000000008152506040518060400160405280600581526020017f4c5449434b000000000000000000000000000000000000000000000000000000815250816000908051906020019062000096929190620000f9565b508060019080519060200190620000af929190620000f9565b50505033600660006101000a81548173ffffffffffffffffffffffffffffffffffffffff021916908373ffffffffffffffffffffffffffffffffffffffff1602179055506200020e565b8280546200010790620001a9565b90600052602060002090601f0160209004810192826200012b576000855562000177565b82601f106200014657805160ff191683800117855562000177565b8280016001018555821562000177579182015b828111156200017657825182559160200191906001019062000159565b5b5090506200018691906200018a565b5090565b5b80821115620001a55760008160009055506001016200018b565b5090565b60006002820490506001821680620001c257607f821691505b60208210811415620001d957620001d8620001df565b5b50919050565b7f4e487b7100000000000000000000000000000000000000000000000000000000600052602260045260246000fd5b61291f806200021e6000396000f3fe608060405234801561001057600080fd5b50600436106100ea5760003560e01c806370a082311161008c578063a22cb46511610066578063a22cb4651461025b578063b88d4fde14610277578063c87b56dd14610293578063e985e9c5146102c3576100ea565b806370a08231146101f157806395d89b4114610221578063a14481941461023f576100ea565b8063095ea7b3116100c8578063095ea7b31461016d57806323b872dd1461018957806342842e0e146101a55780636352211e146101c1576100ea565b806301ffc9a7146100ef57806306fdde031461011f578063081812fc1461013d575b600080fd5b61010960048036038101906101049190611a8f565b6102f3565b6040516101169190611e72565b60405180910390f35b6101276103d5565b6040516101349190611e8d565b60405180910390f35b61015760048036038101906101529190611ae1565b610467565b6040516101649190611e0b565b60405180910390f35b61018760048036038101906101829190611a53565b6104ec565b005b6101a3600480360381019061019e919061194d565b610604565b005b6101bf60048036038101906101ba919061194d565b610664565b005b6101db60048036038101906101d69190611ae1565b610684565b6040516101e89190611e0b565b60405180910390f35b61020b600480360381019061020691906118bf565b610736565b604051610218919061208f565b60405180910390f35b6102296107ee565b6040516102369190611e8d565b60405180910390f35b61025960048036038101906102549190611a53565b610880565b005b61027560048036038101906102709190611a17565b6109a6565b005b610291600480360381019061028c919061199c565b6109bc565b005b6102ad60048036038101906102a89190611ae1565b610a1e565b6040516102ba9190611e8d565b60405180910390f35b6102dd60048036038101906102d89190611911565b610ac5565b6040516102ea9190611e72565b60405180910390f35b60007f80ac58cd000000000000000000000000000000000000000000000000000000007bffffffffffffffffffffffffffffffffffffffffffffffffffffffff1916827bffffffffffffffffffffffffffffffffffffffffffffffffffffffff191614806103be57507f5b5e139f000000000000000000000000000000000000000000000000000000007bffffffffffffffffffffffffffffffffffffffffffffffffffffffff1916827bffffffffffffffffffffffffffffffffffffffffffffffffffffffff1916145b806103ce57506103cd82610b59565b5b9050919050565b6060600080546103e4906122b4565b80601f0160208091040260200160405190810160405280929190818152602001828054610410906122b4565b801561045d5780601f106104325761010080835404028352916020019161045d565b820191906000526020600020905b81548152906001019060200180831161044057829003601f168201915b5050505050905090565b600061047282610bc3565b6104b1576040517f08c379a00000000000000000000000000000000000000000000000000000000081526004016104a890611fef565b60405180910390fd5b6004600083815260200190815260200160002060009054906101000a900473ffffffffffffffffffffffffffffffffffffffff169050919050565b60006104f782610684565b90508073ffffffffffffffffffffffffffffffffffffffff168373ffffffffffffffffffffffffffffffffffffffff161415610568576040517f08c379a000000000000000000000000000000000000000000000000000000000815260040161055f9061204f565b60405180910390fd5b8073ffffffffffffffffffffffffffffffffffffffff16610587610c2f565b73ffffffffffffffffffffffffffffffffffffffff1614806105b657506105b5816105b0610c2f565b610ac5565b5b6105f5576040517f08c379a00000000000000000000000000000000000000000000000000000000081526004016105ec90611f6f565b60405180910390fd5b6105ff8383610c37565b505050565b61061561060f610c2f565b82610cf0565b610654576040517f08c379a000000000000000000000000000000000000000000000000000000000815260040161064b9061206f565b60405180910390fd5b61065f838383610dce565b505050565b61067f838383604051806020016040528060008152506109bc565b505050565b6000806002600084815260200190815260200160002060009054906101000a900473ffffffffffffffffffffffffffffffffffffffff169050600073ffffffffffffffffffffffffffffffffffffffff168173ffffffffffffffffffffffffffffffffffffffff16141561072d576040517f08c379a000000000000000000000000000000000000000000000000000000000815260040161072490611faf565b60405180910390fd5b80915050919050565b60008073ffffffffffffffffffffffffffffffffffffffff168273ffffffffffffffffffffffffffffffffffffffff1614156107a7576040517f08c379a000000000000000000000000000000000000000000000000000000000815260040161079e90611f8f565b60405180910390fd5b600360008373ffffffffffffffffffffffffffffffffffffffff1673ffffffffffffffffffffffffffffffffffffffff168152602001908152602001600020549050919050565b6060600180546107fd906122b4565b80601f0160208091040260200160405190810160405280929190818152602001828054610829906122b4565b80156108765780601f1061084b57610100808354040283529160200191610876565b820191906000526020600020905b81548152906001019060200180831161085957829003601f168201915b5050505050905090565b600660009054906101000a900473ffffffffffffffffffffffffffffffffffffffff1673ffffffffffffffffffffffffffffffffffffffff16635d0eaaaf836040518263ffffffff1660e01b81526004016108db9190611e0b565b60206040518083038186803b1580156108f357600080fd5b505afa158015610907573d6000803e3d6000fd5b505050506040513d601f19601f8201168201806040525081019061092b91906118e8565b73ffffffffffffffffffffffffffffffffffffffff163373ffffffffffffffffffffffffffffffffffffffff1614610998576040517f08c379a000000000000000000000000000000000000000000000000000000000815260040161098f9061200f565b60405180910390fd5b6109a28282611035565b5050565b6109b86109b1610c2f565b8383611053565b5050565b6109cd6109c7610c2f565b83610cf0565b610a0c576040517f08c379a0000000000000000000000000000000000000000000000000000000008152600401610a039061206f565b60405180910390fd5b610a18848484846111c0565b50505050565b6060610a2982610bc3565b610a68576040517f08c379a0000000000000000000000000000000000000000000000000000000008152600401610a5f9061202f565b60405180910390fd5b6000610a7261121c565b90506000815111610a925760405180602001604052806000815250610abd565b80610a9c84611233565b604051602001610aad929190611de7565b6040516020818303038152906040525b915050919050565b6000600560008473ffffffffffffffffffffffffffffffffffffffff1673ffffffffffffffffffffffffffffffffffffffff16815260200190815260200160002060008373ffffffffffffffffffffffffffffffffffffffff1673ffffffffffffffffffffffffffffffffffffffff16815260200190815260200160002060009054906101000a900460ff16905092915050565b60007f01ffc9a7000000000000000000000000000000000000000000000000000000007bffffffffffffffffffffffffffffffffffffffffffffffffffffffff1916827bffffffffffffffffffffffffffffffffffffffffffffffffffffffff1916149050919050565b60008073ffffffffffffffffffffffffffffffffffffffff166002600084815260200190815260200160002060009054906101000a900473ffffffffffffffffffffffffffffffffffffffff1673ffffffffffffffffffffffffffffffffffffffff1614159050919050565b600033905090565b816004600083815260200190815260200160002060006101000a81548173ffffffffffffffffffffffffffffffffffffffff021916908373ffffffffffffffffffffffffffffffffffffffff160217905550808273ffffffffffffffffffffffffffffffffffffffff16610caa83610684565b73ffffffffffffffffffffffffffffffffffffffff167f8c5be1e5ebec7d5bd14f71427d1e84f3dd0314c0f7b2291e5b200ac8c7c3b92560405160405180910390a45050565b6000610cfb82610bc3565b610d3a576040517f08c379a0000000000000000000000000000000000000000000000000000000008152600401610d3190611f4f565b60405180910390fd5b6000610d4583610684565b90508073ffffffffffffffffffffffffffffffffffffffff168473ffffffffffffffffffffffffffffffffffffffff161480610db457508373ffffffffffffffffffffffffffffffffffffffff16610d9c84610467565b73ffffffffffffffffffffffffffffffffffffffff16145b80610dc55750610dc48185610ac5565b5b91505092915050565b8273ffffffffffffffffffffffffffffffffffffffff16610dee82610684565b73ffffffffffffffffffffffffffffffffffffffff1614610e44576040517f08c379a0000000000000000000000000000000000000000000000000000000008152600401610e3b90611ecf565b60405180910390fd5b600073ffffffffffffffffffffffffffffffffffffffff168273ffffffffffffffffffffffffffffffffffffffff161415610eb4576040517f08c379a0000000000000000000000000000000000000000000000000000000008152600401610eab90611f0f565b60405180910390fd5b610ebf8383836113e0565b610eca600082610c37565b6001600360008573ffffffffffffffffffffffffffffffffffffffff1673ffffffffffffffffffffffffffffffffffffffff1681526020019081526020016000206000828254610f1a91906121ca565b925050819055506001600360008473ffffffffffffffffffffffffffffffffffffffff1673ffffffffffffffffffffffffffffffffffffffff1681526020019081526020016000206000828254610f719190612143565b92505081905550816002600083815260200190815260200160002060006101000a81548173ffffffffffffffffffffffffffffffffffffffff021916908373ffffffffffffffffffffffffffffffffffffffff160217905550808273ffffffffffffffffffffffffffffffffffffffff168473ffffffffffffffffffffffffffffffffffffffff167fddf252ad1be2c89b69c2b068fc378daa952ba7f163c4a11628f55a4df523b3ef60405160405180910390a46110308383836113e5565b505050565b61104f8282604051806020016040528060008152506113ea565b5050565b8173ffffffffffffffffffffffffffffffffffffffff168373ffffffffffffffffffffffffffffffffffffffff1614156110c2576040517f08c379a00000000000000000000000000000000000000000000000000000000081526004016110b990611f2f565b60405180910390fd5b80600560008573ffffffffffffffffffffffffffffffffffffffff1673ffffffffffffffffffffffffffffffffffffffff16815260200190815260200160002060008473ffffffffffffffffffffffffffffffffffffffff1673ffffffffffffffffffffffffffffffffffffffff16815260200190815260200160002060006101000a81548160ff0219169083151502179055508173ffffffffffffffffffffffffffffffffffffffff168373ffffffffffffffffffffffffffffffffffffffff167f17307eab39ab6107e8899845ad3d59bd9653f200f220920489ca2b5937696c31836040516111b39190611e72565b60405180910390a3505050565b6111cb848484610dce565b6111d784848484611445565b611216576040517f08c379a000000000000000000000000000000000000000000000000000000000815260040161120d90611eaf565b60405180910390fd5b50505050565b606060405180602001604052806000815250905090565b6060600082141561127b576040518060400160405280600181526020017f300000000000000000000000000000000000000000000000000000000000000081525090506113db565b600082905060005b600082146112ad57808061129690612317565b915050600a826112a69190612199565b9150611283565b60008167ffffffffffffffff8111156112ef577f4e487b7100000000000000000000000000000000000000000000000000000000600052604160045260246000fd5b6040519080825280601f01601f1916602001820160405280156113215781602001600182028036833780820191505090505b5090505b600085146113d45760018261133a91906121ca565b9150600a856113499190612360565b60306113559190612143565b60f81b818381518110611391577f4e487b7100000000000000000000000000000000000000000000000000000000600052603260045260246000fd5b60200101907effffffffffffffffffffffffffffffffffffffffffffffffffffffffffffff1916908160001a905350600a856113cd9190612199565b9450611325565b8093505050505b919050565b505050565b505050565b6113f483836115dc565b6114016000848484611445565b611440576040517f08c379a000000000000000000000000000000000000000000000000000000000815260040161143790611eaf565b60405180910390fd5b505050565b60006114668473ffffffffffffffffffffffffffffffffffffffff166117b6565b156115cf578373ffffffffffffffffffffffffffffffffffffffff1663150b7a0261148f610c2f565b8786866040518563ffffffff1660e01b81526004016114b19493929190611e26565b602060405180830381600087803b1580156114cb57600080fd5b505af19250505080156114fc57506040513d601f19601f820116820180604052508101906114f99190611ab8565b60015b61157f573d806000811461152c576040519150601f19603f3d011682016040523d82523d6000602084013e611531565b606091505b50600081511415611577576040517f08c379a000000000000000000000000000000000000000000000000000000000815260040161156e90611eaf565b60405180910390fd5b805181602001fd5b63150b7a0260e01b7bffffffffffffffffffffffffffffffffffffffffffffffffffffffff1916817bffffffffffffffffffffffffffffffffffffffffffffffffffffffff1916149150506115d4565b600190505b949350505050565b600073ffffffffffffffffffffffffffffffffffffffff168273ffffffffffffffffffffffffffffffffffffffff16141561164c576040517f08c379a000000000000000000000000000000000000000000000000000000000815260040161164390611fcf565b60405180910390fd5b61165581610bc3565b15611695576040517f08c379a000000000000000000000000000000000000000000000000000000000815260040161168c90611eef565b60405180910390fd5b6116a1600083836113e0565b6001600360008473ffffffffffffffffffffffffffffffffffffffff1673ffffffffffffffffffffffffffffffffffffffff16815260200190815260200160002060008282546116f19190612143565b92505081905550816002600083815260200190815260200160002060006101000a81548173ffffffffffffffffffffffffffffffffffffffff021916908373ffffffffffffffffffffffffffffffffffffffff160217905550808273ffffffffffffffffffffffffffffffffffffffff16600073ffffffffffffffffffffffffffffffffffffffff167fddf252ad1be2c89b69c2b068fc378daa952ba7f163c4a11628f55a4df523b3ef60405160405180910390a46117b2600083836113e5565b5050565b6000808273ffffffffffffffffffffffffffffffffffffffff163b119050919050565b60006117ec6117e7846120cf565b6120aa565b90508281526020810184848401111561180457600080fd5b61180f848285612272565b509392505050565b6000813590506118268161288d565b92915050565b60008151905061183b8161288d565b92915050565b600081359050611850816128a4565b92915050565b600081359050611865816128bb565b92915050565b60008151905061187a816128bb565b92915050565b600082601f83011261189157600080fd5b81356118a18482602086016117d9565b91505092915050565b6000813590506118b9816128d2565b92915050565b6000602082840312156118d157600080fd5b60006118df84828501611817565b91505092915050565b6000602082840312156118fa57600080fd5b60006119088482850161182c565b91505092915050565b6000806040838503121561192457600080fd5b600061193285828601611817565b925050602061194385828601611817565b9150509250929050565b60008060006060848603121561196257600080fd5b600061197086828701611817565b935050602061198186828701611817565b9250506040611992868287016118aa565b9150509250925092565b600080600080608085870312156119b257600080fd5b60006119c087828801611817565b94505060206119d187828801611817565b93505060406119e2878288016118aa565b925050606085013567ffffffffffffffff8111156119ff57600080fd5b611a0b87828801611880565b91505092959194509250565b60008060408385031215611a2a57600080fd5b6000611a3885828601611817565b9250506020611a4985828601611841565b9150509250929050565b60008060408385031215611a6657600080fd5b6000611a7485828601611817565b9250506020611a85858286016118aa565b9150509250929050565b600060208284031215611aa157600080fd5b6000611aaf84828501611856565b91505092915050565b600060208284031215611aca57600080fd5b6000611ad88482850161186b565b91505092915050565b600060208284031215611af357600080fd5b6000611b01848285016118aa565b91505092915050565b611b13816121fe565b82525050565b611b2281612210565b82525050565b6000611b3382612100565b611b3d8185612116565b9350611b4d818560208601612281565b611b568161244d565b840191505092915050565b6000611b6c8261210b565b611b768185612127565b9350611b86818560208601612281565b611b8f8161244d565b840191505092915050565b6000611ba58261210b565b611baf8185612138565b9350611bbf818560208601612281565b80840191505092915050565b6000611bd8603283612127565b9150611be38261245e565b604082019050919050565b6000611bfb602583612127565b9150611c06826124ad565b604082019050919050565b6000611c1e601c83612127565b9150611c29826124fc565b602082019050919050565b6000611c41602483612127565b9150611c4c82612525565b604082019050919050565b6000611c64601983612127565b9150611c6f82612574565b602082019050919050565b6000611c87602c83612127565b9150611c928261259d565b604082019050919050565b6000611caa603883612127565b9150611cb5826125ec565b604082019050919050565b6000611ccd602a83612127565b9150611cd88261263b565b604082019050919050565b6000611cf0602983612127565b9150611cfb8261268a565b604082019050919050565b6000611d13602083612127565b9150611d1e826126d9565b602082019050919050565b6000611d36602c83612127565b9150611d4182612702565b604082019050919050565b6000611d59602783612127565b9150611d6482612751565b604082019050919050565b6000611d7c602f83612127565b9150611d87826127a0565b604082019050919050565b6000611d9f602183612127565b9150611daa826127ef565b604082019050919050565b6000611dc2603183612127565b9150611dcd8261283e565b604082019050919050565b611de181612268565b82525050565b6000611df38285611b9a565b9150611dff8284611b9a565b91508190509392505050565b6000602082019050611e206000830184611b0a565b92915050565b6000608082019050611e3b6000830187611b0a565b611e486020830186611b0a565b611e556040830185611dd8565b8181036060830152611e678184611b28565b905095945050505050565b6000602082019050611e876000830184611b19565b92915050565b60006020820190508181036000830152611ea78184611b61565b905092915050565b60006020820190508181036000830152611ec881611bcb565b9050919050565b60006020820190508181036000830152611ee881611bee565b9050919050565b60006020820190508181036000830152611f0881611c11565b9050919050565b60006020820190508181036000830152611f2881611c34565b9050919050565b60006020820190508181036000830152611f4881611c57565b9050919050565b60006020820190508181036000830152611f6881611c7a565b9050919050565b60006020820190508181036000830152611f8881611c9d565b9050919050565b60006020820190508181036000830152611fa881611cc0565b9050919050565b60006020820190508181036000830152611fc881611ce3565b9050919050565b60006020820190508181036000830152611fe881611d06565b9050919050565b6000602082019050818103600083015261200881611d29565b9050919050565b6000602082019050818103600083015261202881611d4c565b9050919050565b6000602082019050818103600083015261204881611d6f565b9050919050565b6000602082019050818103600083015261206881611d92565b9050919050565b6000602082019050818103600083015261208881611db5565b9050919050565b60006020820190506120a46000830184611dd8565b92915050565b60006120b46120c5565b90506120c082826122e6565b919050565b6000604051905090565b600067ffffffffffffffff8211156120ea576120e961241e565b5b6120f38261244d565b9050602081019050919050565b600081519050919050565b600081519050919050565b600082825260208201905092915050565b600082825260208201905092915050565b600081905092915050565b600061214e82612268565b915061215983612268565b9250827fffffffffffffffffffffffffffffffffffffffffffffffffffffffffffffffff0382111561218e5761218d612391565b5b828201905092915050565b60006121a482612268565b91506121af83612268565b9250826121bf576121be6123c0565b5b828204905092915050565b60006121d582612268565b91506121e083612268565b9250828210156121f3576121f2612391565b5b828203905092915050565b600061220982612248565b9050919050565b60008115159050919050565b60007fffffffff0000000000000000000000000000000000000000000000000000000082169050919050565b600073ffffffffffffffffffffffffffffffffffffffff82169050919050565b6000819050919050565b82818337600083830152505050565b60005b8381101561229f578082015181840152602081019050612284565b838111156122ae576000848401525b50505050565b600060028204905060018216806122cc57607f821691505b602082108114156122e0576122df6123ef565b5b50919050565b6122ef8261244d565b810181811067ffffffffffffffff8211171561230e5761230d61241e565b5b80604052505050565b600061232282612268565b91507fffffffffffffffffffffffffffffffffffffffffffffffffffffffffffffffff82141561235557612354612391565b5b600182019050919050565b600061236b82612268565b915061237683612268565b925082612386576123856123c0565b5b828206905092915050565b7f4e487b7100000000000000000000000000000000000000000000000000000000600052601160045260246000fd5b7f4e487b7100000000000000000000000000000000000000000000000000000000600052601260045260246000fd5b7f4e487b7100000000000000000000000000000000000000000000000000000000600052602260045260246000fd5b7f4e487b7100000000000000000000000000000000000000000000000000000000600052604160045260246000fd5b6000601f19601f8301169050919050565b7f4552433732313a207472616e7366657220746f206e6f6e20455243373231526560008201527f63656976657220696d706c656d656e7465720000000000000000000000000000602082015250565b7f4552433732313a207472616e736665722066726f6d20696e636f72726563742060008201527f6f776e6572000000000000000000000000000000000000000000000000000000602082015250565b7f4552433732313a20746f6b656e20616c7265616479206d696e74656400000000600082015250565b7f4552433732313a207472616e7366657220746f20746865207a65726f2061646460008201527f7265737300000000000000000000000000000000000000000000000000000000602082015250565b7f4552433732313a20617070726f766520746f2063616c6c657200000000000000600082015250565b7f4552433732313a206f70657261746f7220717565727920666f72206e6f6e657860008201527f697374656e7420746f6b656e0000000000000000000000000000000000000000602082015250565b7f4552433732313a20617070726f76652063616c6c6572206973206e6f74206f7760008201527f6e6572206e6f7220617070726f76656420666f7220616c6c0000000000000000602082015250565b7f4552433732313a2062616c616e636520717565727920666f7220746865207a6560008201527f726f206164647265737300000000000000000000000000000000000000000000602082015250565b7f4552433732313a206f776e657220717565727920666f72206e6f6e657869737460008201527f656e7420746f6b656e0000000000000000000000000000000000000000000000602082015250565b7f4552433732313a206d696e7420746f20746865207a65726f2061646472657373600082015250565b7f4552433732313a20617070726f76656420717565727920666f72206e6f6e657860008201527f697374656e7420746f6b656e0000000000000000000000000000000000000000602082015250565b7f596f7520617265206e6f7420616c6c6f77656420746f206d696e74207468657360008201527f65204e4654732e00000000000000000000000000000000000000000000000000602082015250565b7f4552433732314d657461646174613a2055524920717565727920666f72206e6f60008201527f6e6578697374656e7420746f6b656e0000000000000000000000000000000000602082015250565b7f4552433732313a20617070726f76616c20746f2063757272656e74206f776e6560008201527f7200000000000000000000000000000000000000000000000000000000000000602082015250565b7f4552433732313a207472616e736665722063616c6c6572206973206e6f74206f60008201527f776e6572206e6f7220617070726f766564000000000000000000000000000000602082015250565b612896816121fe565b81146128a157600080fd5b50565b6128ad81612210565b81146128b857600080fd5b50565b6128c48161221c565b81146128cf57600080fd5b50565b6128db81612268565b81146128e657600080fd5b5056fea2646970667358221220f52f0b25d45d431ad55d29078661e7dc4862700360ae8155ddb9981e865d580a64736f6c63430008040033",
  "immutableReferences": {},
  "source": "// SPDX-License-Identifier: MIT\n\npragma solidity ^0.8.4;\n\nimport \"@openzeppelin/contracts/token/ERC20/ERC20.sol\";\nimport \"@openzeppelin/contracts/token/ERC721/ERC721.sol\";\nimport \"@openzeppelin/contracts/access/Ownable.sol\";\n\n// No importamos el 721 por herencia para evitar conflitos entre ambos contratos\n// ya que muchas de sus funciones comparten nombre.\n\ncontract Lottery is ERC20, Ownable {\n\n    // ====================================\n    //          Gestin de tokens\n    // ====================================\n\n    // Direccin del contrato NFT del proyecto\n\n    address public nft;\n\n    // Constructor\n    constructor() ERC20(\"Lottery\", \"LOT\") {\n        _mint(address(this),1000);\n        nft = address(new mainERC721());\n    }\n\n    // Ganador del premio\n    address public winnerAddress;\n\n    // Registro de usuario\n    mapping(address => address) internal user_contract;\n\n    // Precio de los tokens ERC20\n    function tokenPrice(uint _numtokens) internal pure returns(uint) {\n        return _numtokens * (1 ether);\n    }\n\n    // Visualizacin del balance de tokens ERC220 del usuario\n    function balanceTokens(address _account) public view returns(uint) {\n        return balanceOf(_account);\n    }\n\n    // Visualizacin del balance de tokens ERC220 del SC\n    function balanceTokensSC() public view returns(uint) {\n        return balanceOf(address(this));\n    }\n\n    // Visualizacin del balance de ethers del SC\n    function balanceEthersSC() public view returns (uint) {\n        return address(this).balance / 10**18;\n    }\n\n    // Generacin de nuevos tokens ERC20\n    function _mintNewTokens(uint amount) public onlyOwner returns(bool) {\n        _mint(address(this),amount);\n        return true;\n    }\n\n    // Registro de usuarios\n    function signUp() internal {\n        address addr_personal_contract = address(new NFTTickets(msg.sender, address(this) ,nft));\n        user_contract[msg.sender] = addr_personal_contract;\n    }\n\n    // Informacin de un usuario\n    function usersInfo(address _account) public view returns(address) {\n        return user_contract[_account];\n    }\n\n    // Compra de tokens ERC20\n    function buyTokens(uint _amount) public payable {\n        // Registro del usuario\n        if (user_contract[msg.sender] == address(0)) {\n            signUp();\n        }\n        \n        // Establecimiento del coste de los token a comprar.\n        uint tokensCost = tokenPrice(_amount);\n\n        // Evaluacin del envo de Ether por parte del usuario.\n        require(msg.value >= tokensCost, \"The amount sent is not enough to buy the requested tokens.\");\n\n        // Obtencion del nmero de tokens disponibles\n        uint availableTokens = balanceTokensSC();\n\n        // Evaluacin de los tokens ERC20 disponibles para su venta\n        require(availableTokens >= _amount, \"There are not enough available tokens to complete the purchase.\");\n\n        // Devolucin de los ethers sobrantes en la compra\n        uint returnValue = msg.value - tokensCost;\n\n        // El Smart Contract devuelve los ethers sobrantes\n        payable(msg.sender).transfer(returnValue);\n\n        // Enviamos los Tokens ERC20 al usuario\n        _transfer(address(this), msg.sender, _amount);\n    }\n\n    // Devolucin de tokens ERC20 al SC.\n    function returnTokens(uint _amount) public payable {\n        \n        // El numero de tokens debe ser mayor a 0\n        require(_amount > 0, \"The requested amount must be greater than zero.\");\n\n        // El usuario debe tener la cantidad de tokens a devolver.\n        require(balanceTokens(msg.sender) >= _amount, \"Your tokens balance must be greater than the requested amount.\");\n\n        // El usuario transfiere los tokens al SC.\n        _transfer(msg.sender, address(this), _amount);\n\n        // El SC enva los ethers al usuario.\n        uint tokensCost = tokenPrice(_amount);\n        payable(msg.sender).transfer(tokensCost);\n    }\n\n\n    // ====================================\n    //        Gestin de la loteria\n    // ====================================\n\n    // Precio del boleto de lotera en tokens ERC20\n    uint ticketPrice = 5;\n\n    // Relacin persona que compra boletos con los nmeros de los boletos comprados\n    mapping(address => uint []) userID_Tickets;\n\n    // Relacin boleto con ganador\n    mapping(uint => address) Ticketdna;\n\n    // Nmeros aleatorio\n    uint randNonce = 0;\n\n    // Boletos de lotera generados\n    uint [] generatedTickets;\n\n    // Compra de boletos de lotera\n    function buyTickets( uint _amount) public {\n\n        uint totalPrice = _amount * ticketPrice;\n\n        require(balanceTokens(msg.sender) >= totalPrice, \"Your token balance is not enough to buy this amount of Lottery tickets.\");\n\n        // Transferencia de tokens al SC.\n        _transfer(msg.sender, address(this), totalPrice);\n\n        // Minteo de los tickets para el usuario\n        for (uint i; i < _amount; i++) {\n\n            uint random = uint(keccak256(abi.encodePacked(block.timestamp, msg.sender, randNonce))) % 100000;\n            randNonce++;\n\n            // Almacenamiento de los datos del boleto enlazado al usuario\n            userID_Tickets[msg.sender].push(random);\n\n            // Almacenamiento de los datos de los boletos\n            generatedTickets.push(random);\n\n            // Asignacin del ADN del boleto para la generacin de un ganador.\n            Ticketdna[random] = msg.sender;\n\n            // Creacin de un nuevo NFT para ese nmero de boleto\n            NFTTickets(user_contract[msg.sender]).TicketMint(msg.sender,random);\n        }\n    }\n\n    // Visualizacin de los boletos del usuario\n    function myTickets(address _owner) public view returns(uint [] memory) {\n        return userID_Tickets[_owner];\n    }\n\n    // Generacion del ganador de la loteria\n    function getLotteryWinner() public onlyOwner {\n        \n        // Generamos un nmero aleatorio entre el total de tickets comprados\n        uint totalTickets = generatedTickets.length;\n\n        // Verificamos si se ha vendido al menos 1 boleto\n        require(totalTickets > 0, \"There are not ticket bought.\");\n\n        // Eleccin aleatoria entre 0 y el nmero total de boletos comprados\n        uint random = uint(uint(keccak256(abi.encodePacked(block.timestamp))) % totalTickets);\n\n        // Seleccin del nmero aleatorio\n        uint winnerNumber = generatedTickets[random];\n\n        // Direccin del ganador\n        winnerAddress = Ticketdna[winnerNumber];\n\n        // Envo del 95% de la recaudacin de la lotera al ganador\n        uint prize = (address(this).balance / 100) * 95;\n        payable(winnerAddress).transfer(prize);\n\n        // Envo del beneficio al Owner\n        uint profit = address(this).balance;\n        payable(owner()).transfer(profit);\n    }\n\n    /*function checkTicketIsUnique(uint _ticket) internal view returns(bool) {\n        bool unique = true;\n        for (uint i; i < generatedTickets.length; i++) {\n            if (_ticket == generatedTickets[i]) {\n                unique = false;\n            }\n        }\n        return unique;\n    }*/\n}\n\n\n// Smart Contract de NFTs\ncontract mainERC721 is ERC721 {\n\n    address AddressLottery;\n    constructor() ERC721(\"Lottery Tickets\",\"LTICK\") {\n        AddressLottery = msg.sender;\n    }\n\n    // Creacin de los NFTs\n    function safeMint(address _owner, uint _ticketNumber) public {  // Esta funcin al ser llamada en un contrato declarado SIN HERENCIA\n                                                                    // debe ser pblica, no sirve como internal.\n        require(msg.sender == Lottery(AddressLottery).usersInfo(_owner), \"You are not allowed to mint these NFTs.\");\n        _safeMint(_owner, _ticketNumber);\n    }\n}\n\n\ncontract NFTTickets {\n\n    // Datos relevantes del propietario\n    struct Owner {\n        address ownerAddress;\n        address lotteryContractAddress;\n        address NFTTicketsContractAddress;\n        address ownerContractAddress;\n    }\n\n    Owner public ownerData;\n\n    constructor(address _ownerAddress, address _lotteryContract, address _NFTTicketsContract) {\n        ownerData = Owner(_ownerAddress, _lotteryContract, _NFTTicketsContract, address(this));\n    }\n\n    function TicketMint(address _owner, uint _ticket) public {\n        require(msg.sender == ownerData.lotteryContractAddress, \"You are not allowed to mint these NFTs.\");\n        mainERC721(ownerData.NFTTicketsContractAddress).safeMint(_owner, _ticket);\n    }\n\n}",
  "sourcePath": "/Users/gush/Documents/Desarrollo/Web3/Formacion/Proyectos/BCLottery/src/contracts/lottery.sol",
  "compiler": {
    "name": "solc",
    "version": "0.8.4+commit.c7e474f2.Emscripten.clang"
  },
  "schemaVersion": "3.4.8",
  "updatedAt": "2022-08-05T15:50:05.534Z",
  "devdoc": {
    "kind": "dev",
    "methods": {
      "approve(address,uint256)": {
        "details": "See {IERC721-approve}."
      },
      "balanceOf(address)": {
        "details": "See {IERC721-balanceOf}."
      },
      "getApproved(uint256)": {
        "details": "See {IERC721-getApproved}."
      },
      "isApprovedForAll(address,address)": {
        "details": "See {IERC721-isApprovedForAll}."
      },
      "name()": {
        "details": "See {IERC721Metadata-name}."
      },
      "ownerOf(uint256)": {
        "details": "See {IERC721-ownerOf}."
      },
      "safeTransferFrom(address,address,uint256)": {
        "details": "See {IERC721-safeTransferFrom}."
      },
      "safeTransferFrom(address,address,uint256,bytes)": {
        "details": "See {IERC721-safeTransferFrom}."
      },
      "setApprovalForAll(address,bool)": {
        "details": "See {IERC721-setApprovalForAll}."
      },
      "supportsInterface(bytes4)": {
        "details": "See {IERC165-supportsInterface}."
      },
      "symbol()": {
        "details": "See {IERC721Metadata-symbol}."
      },
      "tokenURI(uint256)": {
        "details": "See {IERC721Metadata-tokenURI}."
      },
      "transferFrom(address,address,uint256)": {
        "details": "See {IERC721-transferFrom}."
      }
    },
    "version": 1
  },
  "userdoc": {
    "kind": "user",
    "methods": {},
    "version": 1
  }
}