{
  "contractName": "NFTTickets",
  "abi": [
    {
      "inputs": [
        {
          "internalType": "address",
          "name": "_lotteryContract",
          "type": "address"
        }
      ],
      "stateMutability": "nonpayable",
      "type": "constructor"
    },
    {
      "anonymous": false,
      "inputs": [
        {
          "indexed": true,
          "internalType": "address",
          "name": "owner",
          "type": "address"
        },
        {
          "indexed": true,
          "internalType": "address",
          "name": "approved",
          "type": "address"
        },
        {
          "indexed": true,
          "internalType": "uint256",
          "name": "tokenId",
          "type": "uint256"
        }
      ],
      "name": "Approval",
      "type": "event"
    },
    {
      "anonymous": false,
      "inputs": [
        {
          "indexed": true,
          "internalType": "address",
          "name": "owner",
          "type": "address"
        },
        {
          "indexed": true,
          "internalType": "address",
          "name": "operator",
          "type": "address"
        },
        {
          "indexed": false,
          "internalType": "bool",
          "name": "approved",
          "type": "bool"
        }
      ],
      "name": "ApprovalForAll",
      "type": "event"
    },
    {
      "anonymous": false,
      "inputs": [
        {
          "indexed": true,
          "internalType": "address",
          "name": "from",
          "type": "address"
        },
        {
          "indexed": true,
          "internalType": "address",
          "name": "to",
          "type": "address"
        },
        {
          "indexed": true,
          "internalType": "uint256",
          "name": "tokenId",
          "type": "uint256"
        }
      ],
      "name": "Transfer",
      "type": "event"
    },
    {
      "inputs": [
        {
          "internalType": "address",
          "name": "to",
          "type": "address"
        },
        {
          "internalType": "uint256",
          "name": "tokenId",
          "type": "uint256"
        }
      ],
      "name": "approve",
      "outputs": [],
      "stateMutability": "nonpayable",
      "type": "function"
    },
    {
      "inputs": [
        {
          "internalType": "address",
          "name": "owner",
          "type": "address"
        }
      ],
      "name": "balanceOf",
      "outputs": [
        {
          "internalType": "uint256",
          "name": "",
          "type": "uint256"
        }
      ],
      "stateMutability": "view",
      "type": "function"
    },
    {
      "inputs": [],
      "name": "contractData",
      "outputs": [
        {
          "internalType": "address",
          "name": "lotteryContractAddress",
          "type": "address"
        },
        {
          "internalType": "address",
          "name": "NFTTicketsContractAddress",
          "type": "address"
        }
      ],
      "stateMutability": "view",
      "type": "function"
    },
    {
      "inputs": [
        {
          "internalType": "uint256",
          "name": "tokenId",
          "type": "uint256"
        }
      ],
      "name": "getApproved",
      "outputs": [
        {
          "internalType": "address",
          "name": "",
          "type": "address"
        }
      ],
      "stateMutability": "view",
      "type": "function"
    },
    {
      "inputs": [
        {
          "internalType": "address",
          "name": "owner",
          "type": "address"
        },
        {
          "internalType": "address",
          "name": "operator",
          "type": "address"
        }
      ],
      "name": "isApprovedForAll",
      "outputs": [
        {
          "internalType": "bool",
          "name": "",
          "type": "bool"
        }
      ],
      "stateMutability": "view",
      "type": "function"
    },
    {
      "inputs": [],
      "name": "name",
      "outputs": [
        {
          "internalType": "string",
          "name": "",
          "type": "string"
        }
      ],
      "stateMutability": "view",
      "type": "function"
    },
    {
      "inputs": [
        {
          "internalType": "uint256",
          "name": "tokenId",
          "type": "uint256"
        }
      ],
      "name": "ownerOf",
      "outputs": [
        {
          "internalType": "address",
          "name": "",
          "type": "address"
        }
      ],
      "stateMutability": "view",
      "type": "function"
    },
    {
      "inputs": [
        {
          "internalType": "address",
          "name": "from",
          "type": "address"
        },
        {
          "internalType": "address",
          "name": "to",
          "type": "address"
        },
        {
          "internalType": "uint256",
          "name": "tokenId",
          "type": "uint256"
        }
      ],
      "name": "safeTransferFrom",
      "outputs": [],
      "stateMutability": "nonpayable",
      "type": "function"
    },
    {
      "inputs": [
        {
          "internalType": "address",
          "name": "from",
          "type": "address"
        },
        {
          "internalType": "address",
          "name": "to",
          "type": "address"
        },
        {
          "internalType": "uint256",
          "name": "tokenId",
          "type": "uint256"
        },
        {
          "internalType": "bytes",
          "name": "_data",
          "type": "bytes"
        }
      ],
      "name": "safeTransferFrom",
      "outputs": [],
      "stateMutability": "nonpayable",
      "type": "function"
    },
    {
      "inputs": [
        {
          "internalType": "address",
          "name": "operator",
          "type": "address"
        },
        {
          "internalType": "bool",
          "name": "approved",
          "type": "bool"
        }
      ],
      "name": "setApprovalForAll",
      "outputs": [],
      "stateMutability": "nonpayable",
      "type": "function"
    },
    {
      "inputs": [
        {
          "internalType": "bytes4",
          "name": "interfaceId",
          "type": "bytes4"
        }
      ],
      "name": "supportsInterface",
      "outputs": [
        {
          "internalType": "bool",
          "name": "",
          "type": "bool"
        }
      ],
      "stateMutability": "view",
      "type": "function"
    },
    {
      "inputs": [],
      "name": "symbol",
      "outputs": [
        {
          "internalType": "string",
          "name": "",
          "type": "string"
        }
      ],
      "stateMutability": "view",
      "type": "function"
    },
    {
      "inputs": [
        {
          "internalType": "uint256",
          "name": "tokenId",
          "type": "uint256"
        }
      ],
      "name": "tokenURI",
      "outputs": [
        {
          "internalType": "string",
          "name": "",
          "type": "string"
        }
      ],
      "stateMutability": "view",
      "type": "function"
    },
    {
      "inputs": [
        {
          "internalType": "address",
          "name": "from",
          "type": "address"
        },
        {
          "internalType": "address",
          "name": "to",
          "type": "address"
        },
        {
          "internalType": "uint256",
          "name": "tokenId",
          "type": "uint256"
        }
      ],
      "name": "transferFrom",
      "outputs": [],
      "stateMutability": "nonpayable",
      "type": "function"
    },
    {
      "inputs": [
        {
          "internalType": "address",
          "name": "_owner",
          "type": "address"
        },
        {
          "internalType": "uint256",
          "name": "_ticket",
          "type": "uint256"
        }
      ],
      "name": "TicketMint",
      "outputs": [],
      "stateMutability": "nonpayable",
      "type": "function"
    },
    {
      "inputs": [
        {
          "internalType": "uint256",
          "name": "_ticket",
          "type": "uint256"
        }
      ],
      "name": "ticketBurn",
      "outputs": [],
      "stateMutability": "nonpayable",
      "type": "function"
    }
  ],
  "bytecode": "0x60806040523480156200001157600080fd5b5060405162002ede38038062002ede833981810160405281019062000037919062000279565b6040518060400160405280600f81526020017f4c6f7474657279205469636b65747300000000000000000000000000000000008152506040518060400160405280600581526020017f4c5449434b0000000000000000000000000000000000000000000000000000008152508160009080519060200190620000bb929190620001b2565b508060019080519060200190620000d4929190620001b2565b50505060405180604001604052808273ffffffffffffffffffffffffffffffffffffffff1681526020013073ffffffffffffffffffffffffffffffffffffffff16815250600660008201518160000160006101000a81548173ffffffffffffffffffffffffffffffffffffffff021916908373ffffffffffffffffffffffffffffffffffffffff16021790555060208201518160010160006101000a81548173ffffffffffffffffffffffffffffffffffffffff021916908373ffffffffffffffffffffffffffffffffffffffff1602179055509050505062000358565b828054620001c090620002d9565b90600052602060002090601f016020900481019282620001e4576000855562000230565b82601f10620001ff57805160ff191683800117855562000230565b8280016001018555821562000230579182015b828111156200022f57825182559160200191906001019062000212565b5b5090506200023f919062000243565b5090565b5b808211156200025e57600081600090555060010162000244565b5090565b60008151905062000273816200033e565b92915050565b6000602082840312156200028c57600080fd5b60006200029c8482850162000262565b91505092915050565b6000620002b282620002b9565b9050919050565b600073ffffffffffffffffffffffffffffffffffffffff82169050919050565b60006002820490506001821680620002f257607f821691505b602082108114156200030957620003086200030f565b5b50919050565b7f4e487b7100000000000000000000000000000000000000000000000000000000600052602260045260246000fd5b6200034981620002a5565b81146200035557600080fd5b50565b612b7680620003686000396000f3fe608060405234801561001057600080fd5b50600436106101005760003560e01c806354b4380f11610097578063a22cb46511610066578063a22cb465146102ac578063b88d4fde146102c8578063c87b56dd146102e4578063e985e9c51461031457610100565b806354b4380f146102125780636352211e1461022e57806370a082311461025e57806395d89b411461028e57610100565b806323b872dd116100d357806323b872dd1461019f57806338724e6a146101bb5780633cca2420146101d757806342842e0e146101f657610100565b806301ffc9a71461010557806306fdde0314610135578063081812fc14610153578063095ea7b314610183575b600080fd5b61011f600480360381019061011a9190611c2b565b610344565b60405161012c919061205a565b60405180910390f35b61013d610426565b60405161014a9190612075565b60405180910390f35b61016d60048036038101906101689190611c7d565b6104b8565b60405161017a9190611fca565b60405180910390f35b61019d60048036038101906101989190611bef565b61053d565b005b6101b960048036038101906101b49190611ae9565b610655565b005b6101d560048036038101906101d09190611bef565b6106b5565b005b6101df610756565b6040516101ed929190611fe5565b60405180910390f35b610210600480360381019061020b9190611ae9565b6107a8565b005b61022c60048036038101906102279190611c7d565b6107c8565b005b61024860048036038101906102439190611c7d565b610867565b6040516102559190611fca565b60405180910390f35b61027860048036038101906102739190611a84565b610919565b6040516102859190612297565b60405180910390f35b6102966109d1565b6040516102a39190612075565b60405180910390f35b6102c660048036038101906102c19190611bb3565b610a63565b005b6102e260048036038101906102dd9190611b38565b610a79565b005b6102fe60048036038101906102f99190611c7d565b610adb565b60405161030b9190612075565b60405180910390f35b61032e60048036038101906103299190611aad565b610b82565b60405161033b919061205a565b60405180910390f35b60007f80ac58cd000000000000000000000000000000000000000000000000000000007bffffffffffffffffffffffffffffffffffffffffffffffffffffffff1916827bffffffffffffffffffffffffffffffffffffffffffffffffffffffff1916148061040f57507f5b5e139f000000000000000000000000000000000000000000000000000000007bffffffffffffffffffffffffffffffffffffffffffffffffffffffff1916827bffffffffffffffffffffffffffffffffffffffffffffffffffffffff1916145b8061041f575061041e82610c16565b5b9050919050565b606060008054610435906124bc565b80601f0160208091040260200160405190810160405280929190818152602001828054610461906124bc565b80156104ae5780601f10610483576101008083540402835291602001916104ae565b820191906000526020600020905b81548152906001019060200180831161049157829003601f168201915b5050505050905090565b60006104c382610c80565b610502576040517f08c379a00000000000000000000000000000000000000000000000000000000081526004016104f9906121f7565b60405180910390fd5b6004600083815260200190815260200160002060009054906101000a900473ffffffffffffffffffffffffffffffffffffffff169050919050565b600061054882610867565b90508073ffffffffffffffffffffffffffffffffffffffff168373ffffffffffffffffffffffffffffffffffffffff1614156105b9576040517f08c379a00000000000000000000000000000000000000000000000000000000081526004016105b090612257565b60405180910390fd5b8073ffffffffffffffffffffffffffffffffffffffff166105d8610cec565b73ffffffffffffffffffffffffffffffffffffffff161480610607575061060681610601610cec565b610b82565b5b610646576040517f08c379a000000000000000000000000000000000000000000000000000000000815260040161063d90612177565b60405180910390fd5b6106508383610cf4565b505050565b610666610660610cec565b82610dad565b6106a5576040517f08c379a000000000000000000000000000000000000000000000000000000000815260040161069c90612277565b60405180910390fd5b6106b0838383610e8b565b505050565b600660000160009054906101000a900473ffffffffffffffffffffffffffffffffffffffff1673ffffffffffffffffffffffffffffffffffffffff163373ffffffffffffffffffffffffffffffffffffffff1614610748576040517f08c379a000000000000000000000000000000000000000000000000000000000815260040161073f90612217565b60405180910390fd5b61075282826110f2565b5050565b60068060000160009054906101000a900473ffffffffffffffffffffffffffffffffffffffff16908060010160009054906101000a900473ffffffffffffffffffffffffffffffffffffffff16905082565b6107c383838360405180602001604052806000815250610a79565b505050565b600660000160009054906101000a900473ffffffffffffffffffffffffffffffffffffffff1673ffffffffffffffffffffffffffffffffffffffff163373ffffffffffffffffffffffffffffffffffffffff161461085b576040517f08c379a000000000000000000000000000000000000000000000000000000000815260040161085290612097565b60405180910390fd5b61086481611110565b50565b6000806002600084815260200190815260200160002060009054906101000a900473ffffffffffffffffffffffffffffffffffffffff169050600073ffffffffffffffffffffffffffffffffffffffff168173ffffffffffffffffffffffffffffffffffffffff161415610910576040517f08c379a0000000000000000000000000000000000000000000000000000000008152600401610907906121b7565b60405180910390fd5b80915050919050565b60008073ffffffffffffffffffffffffffffffffffffffff168273ffffffffffffffffffffffffffffffffffffffff16141561098a576040517f08c379a000000000000000000000000000000000000000000000000000000000815260040161098190612197565b60405180910390fd5b600360008373ffffffffffffffffffffffffffffffffffffffff1673ffffffffffffffffffffffffffffffffffffffff168152602001908152602001600020549050919050565b6060600180546109e0906124bc565b80601f0160208091040260200160405190810160405280929190818152602001828054610a0c906124bc565b8015610a595780601f10610a2e57610100808354040283529160200191610a59565b820191906000526020600020905b815481529060010190602001808311610a3c57829003601f168201915b5050505050905090565b610a75610a6e610cec565b838361122d565b5050565b610a8a610a84610cec565b83610dad565b610ac9576040517f08c379a0000000000000000000000000000000000000000000000000000000008152600401610ac090612277565b60405180910390fd5b610ad58484848461139a565b50505050565b6060610ae682610c80565b610b25576040517f08c379a0000000000000000000000000000000000000000000000000000000008152600401610b1c90612237565b60405180910390fd5b6000610b2f6113f6565b90506000815111610b4f5760405180602001604052806000815250610b7a565b80610b598461140d565b604051602001610b6a929190611fa6565b6040516020818303038152906040525b915050919050565b6000600560008473ffffffffffffffffffffffffffffffffffffffff1673ffffffffffffffffffffffffffffffffffffffff16815260200190815260200160002060008373ffffffffffffffffffffffffffffffffffffffff1673ffffffffffffffffffffffffffffffffffffffff16815260200190815260200160002060009054906101000a900460ff16905092915050565b60007f01ffc9a7000000000000000000000000000000000000000000000000000000007bffffffffffffffffffffffffffffffffffffffffffffffffffffffff1916827bffffffffffffffffffffffffffffffffffffffffffffffffffffffff1916149050919050565b60008073ffffffffffffffffffffffffffffffffffffffff166002600084815260200190815260200160002060009054906101000a900473ffffffffffffffffffffffffffffffffffffffff1673ffffffffffffffffffffffffffffffffffffffff1614159050919050565b600033905090565b816004600083815260200190815260200160002060006101000a81548173ffffffffffffffffffffffffffffffffffffffff021916908373ffffffffffffffffffffffffffffffffffffffff160217905550808273ffffffffffffffffffffffffffffffffffffffff16610d6783610867565b73ffffffffffffffffffffffffffffffffffffffff167f8c5be1e5ebec7d5bd14f71427d1e84f3dd0314c0f7b2291e5b200ac8c7c3b92560405160405180910390a45050565b6000610db882610c80565b610df7576040517f08c379a0000000000000000000000000000000000000000000000000000000008152600401610dee90612157565b60405180910390fd5b6000610e0283610867565b90508073ffffffffffffffffffffffffffffffffffffffff168473ffffffffffffffffffffffffffffffffffffffff161480610e7157508373ffffffffffffffffffffffffffffffffffffffff16610e59846104b8565b73ffffffffffffffffffffffffffffffffffffffff16145b80610e825750610e818185610b82565b5b91505092915050565b8273ffffffffffffffffffffffffffffffffffffffff16610eab82610867565b73ffffffffffffffffffffffffffffffffffffffff1614610f01576040517f08c379a0000000000000000000000000000000000000000000000000000000008152600401610ef8906120d7565b60405180910390fd5b600073ffffffffffffffffffffffffffffffffffffffff168273ffffffffffffffffffffffffffffffffffffffff161415610f71576040517f08c379a0000000000000000000000000000000000000000000000000000000008152600401610f6890612117565b60405180910390fd5b610f7c8383836115ba565b610f87600082610cf4565b6001600360008573ffffffffffffffffffffffffffffffffffffffff1673ffffffffffffffffffffffffffffffffffffffff1681526020019081526020016000206000828254610fd791906123d2565b925050819055506001600360008473ffffffffffffffffffffffffffffffffffffffff1673ffffffffffffffffffffffffffffffffffffffff168152602001908152602001600020600082825461102e919061234b565b92505081905550816002600083815260200190815260200160002060006101000a81548173ffffffffffffffffffffffffffffffffffffffff021916908373ffffffffffffffffffffffffffffffffffffffff160217905550808273ffffffffffffffffffffffffffffffffffffffff168473ffffffffffffffffffffffffffffffffffffffff167fddf252ad1be2c89b69c2b068fc378daa952ba7f163c4a11628f55a4df523b3ef60405160405180910390a46110ed8383836115bf565b505050565b61110c8282604051806020016040528060008152506115c4565b5050565b600061111b82610867565b9050611129816000846115ba565b611134600083610cf4565b6001600360008373ffffffffffffffffffffffffffffffffffffffff1673ffffffffffffffffffffffffffffffffffffffff168152602001908152602001600020600082825461118491906123d2565b925050819055506002600083815260200190815260200160002060006101000a81549073ffffffffffffffffffffffffffffffffffffffff021916905581600073ffffffffffffffffffffffffffffffffffffffff168273ffffffffffffffffffffffffffffffffffffffff167fddf252ad1be2c89b69c2b068fc378daa952ba7f163c4a11628f55a4df523b3ef60405160405180910390a4611229816000846115bf565b5050565b8173ffffffffffffffffffffffffffffffffffffffff168373ffffffffffffffffffffffffffffffffffffffff16141561129c576040517f08c379a000000000000000000000000000000000000000000000000000000000815260040161129390612137565b60405180910390fd5b80600560008573ffffffffffffffffffffffffffffffffffffffff1673ffffffffffffffffffffffffffffffffffffffff16815260200190815260200160002060008473ffffffffffffffffffffffffffffffffffffffff1673ffffffffffffffffffffffffffffffffffffffff16815260200190815260200160002060006101000a81548160ff0219169083151502179055508173ffffffffffffffffffffffffffffffffffffffff168373ffffffffffffffffffffffffffffffffffffffff167f17307eab39ab6107e8899845ad3d59bd9653f200f220920489ca2b5937696c318360405161138d919061205a565b60405180910390a3505050565b6113a5848484610e8b565b6113b18484848461161f565b6113f0576040517f08c379a00000000000000000000000000000000000000000000000000000000081526004016113e7906120b7565b60405180910390fd5b50505050565b606060405180602001604052806000815250905090565b60606000821415611455576040518060400160405280600181526020017f300000000000000000000000000000000000000000000000000000000000000081525090506115b5565b600082905060005b600082146114875780806114709061251f565b915050600a8261148091906123a1565b915061145d565b60008167ffffffffffffffff8111156114c9577f4e487b7100000000000000000000000000000000000000000000000000000000600052604160045260246000fd5b6040519080825280601f01601f1916602001820160405280156114fb5781602001600182028036833780820191505090505b5090505b600085146115ae5760018261151491906123d2565b9150600a856115239190612568565b603061152f919061234b565b60f81b81838151811061156b577f4e487b7100000000000000000000000000000000000000000000000000000000600052603260045260246000fd5b60200101907effffffffffffffffffffffffffffffffffffffffffffffffffffffffffffff1916908160001a905350600a856115a791906123a1565b94506114ff565b8093505050505b919050565b505050565b505050565b6115ce83836117b6565b6115db600084848461161f565b61161a576040517f08c379a0000000000000000000000000000000000000000000000000000000008152600401611611906120b7565b60405180910390fd5b505050565b60006116408473ffffffffffffffffffffffffffffffffffffffff16611990565b156117a9578373ffffffffffffffffffffffffffffffffffffffff1663150b7a02611669610cec565b8786866040518563ffffffff1660e01b815260040161168b949392919061200e565b602060405180830381600087803b1580156116a557600080fd5b505af19250505080156116d657506040513d601f19601f820116820180604052508101906116d39190611c54565b60015b611759573d8060008114611706576040519150601f19603f3d011682016040523d82523d6000602084013e61170b565b606091505b50600081511415611751576040517f08c379a0000000000000000000000000000000000000000000000000000000008152600401611748906120b7565b60405180910390fd5b805181602001fd5b63150b7a0260e01b7bffffffffffffffffffffffffffffffffffffffffffffffffffffffff1916817bffffffffffffffffffffffffffffffffffffffffffffffffffffffff1916149150506117ae565b600190505b949350505050565b600073ffffffffffffffffffffffffffffffffffffffff168273ffffffffffffffffffffffffffffffffffffffff161415611826576040517f08c379a000000000000000000000000000000000000000000000000000000000815260040161181d906121d7565b60405180910390fd5b61182f81610c80565b1561186f576040517f08c379a0000000000000000000000000000000000000000000000000000000008152600401611866906120f7565b60405180910390fd5b61187b600083836115ba565b6001600360008473ffffffffffffffffffffffffffffffffffffffff1673ffffffffffffffffffffffffffffffffffffffff16815260200190815260200160002060008282546118cb919061234b565b92505081905550816002600083815260200190815260200160002060006101000a81548173ffffffffffffffffffffffffffffffffffffffff021916908373ffffffffffffffffffffffffffffffffffffffff160217905550808273ffffffffffffffffffffffffffffffffffffffff16600073ffffffffffffffffffffffffffffffffffffffff167fddf252ad1be2c89b69c2b068fc378daa952ba7f163c4a11628f55a4df523b3ef60405160405180910390a461198c600083836115bf565b5050565b6000808273ffffffffffffffffffffffffffffffffffffffff163b119050919050565b60006119c66119c1846122d7565b6122b2565b9050828152602081018484840111156119de57600080fd5b6119e984828561247a565b509392505050565b600081359050611a0081612ae4565b92915050565b600081359050611a1581612afb565b92915050565b600081359050611a2a81612b12565b92915050565b600081519050611a3f81612b12565b92915050565b600082601f830112611a5657600080fd5b8135611a668482602086016119b3565b91505092915050565b600081359050611a7e81612b29565b92915050565b600060208284031215611a9657600080fd5b6000611aa4848285016119f1565b91505092915050565b60008060408385031215611ac057600080fd5b6000611ace858286016119f1565b9250506020611adf858286016119f1565b9150509250929050565b600080600060608486031215611afe57600080fd5b6000611b0c868287016119f1565b9350506020611b1d868287016119f1565b9250506040611b2e86828701611a6f565b9150509250925092565b60008060008060808587031215611b4e57600080fd5b6000611b5c878288016119f1565b9450506020611b6d878288016119f1565b9350506040611b7e87828801611a6f565b925050606085013567ffffffffffffffff811115611b9b57600080fd5b611ba787828801611a45565b91505092959194509250565b60008060408385031215611bc657600080fd5b6000611bd4858286016119f1565b9250506020611be585828601611a06565b9150509250929050565b60008060408385031215611c0257600080fd5b6000611c10858286016119f1565b9250506020611c2185828601611a6f565b9150509250929050565b600060208284031215611c3d57600080fd5b6000611c4b84828501611a1b565b91505092915050565b600060208284031215611c6657600080fd5b6000611c7484828501611a30565b91505092915050565b600060208284031215611c8f57600080fd5b6000611c9d84828501611a6f565b91505092915050565b611caf81612406565b82525050565b611cbe81612418565b82525050565b6000611ccf82612308565b611cd9818561231e565b9350611ce9818560208601612489565b611cf281612655565b840191505092915050565b6000611d0882612313565b611d12818561232f565b9350611d22818560208601612489565b611d2b81612655565b840191505092915050565b6000611d4182612313565b611d4b8185612340565b9350611d5b818560208601612489565b80840191505092915050565b6000611d7460278361232f565b9150611d7f82612666565b604082019050919050565b6000611d9760328361232f565b9150611da2826126b5565b604082019050919050565b6000611dba60258361232f565b9150611dc582612704565b604082019050919050565b6000611ddd601c8361232f565b9150611de882612753565b602082019050919050565b6000611e0060248361232f565b9150611e0b8261277c565b604082019050919050565b6000611e2360198361232f565b9150611e2e826127cb565b602082019050919050565b6000611e46602c8361232f565b9150611e51826127f4565b604082019050919050565b6000611e6960388361232f565b9150611e7482612843565b604082019050919050565b6000611e8c602a8361232f565b9150611e9782612892565b604082019050919050565b6000611eaf60298361232f565b9150611eba826128e1565b604082019050919050565b6000611ed260208361232f565b9150611edd82612930565b602082019050919050565b6000611ef5602c8361232f565b9150611f0082612959565b604082019050919050565b6000611f1860278361232f565b9150611f23826129a8565b604082019050919050565b6000611f3b602f8361232f565b9150611f46826129f7565b604082019050919050565b6000611f5e60218361232f565b9150611f6982612a46565b604082019050919050565b6000611f8160318361232f565b9150611f8c82612a95565b604082019050919050565b611fa081612470565b82525050565b6000611fb28285611d36565b9150611fbe8284611d36565b91508190509392505050565b6000602082019050611fdf6000830184611ca6565b92915050565b6000604082019050611ffa6000830185611ca6565b6120076020830184611ca6565b9392505050565b60006080820190506120236000830187611ca6565b6120306020830186611ca6565b61203d6040830185611f97565b818103606083015261204f8184611cc4565b905095945050505050565b600060208201905061206f6000830184611cb5565b92915050565b6000602082019050818103600083015261208f8184611cfd565b905092915050565b600060208201905081810360008301526120b081611d67565b9050919050565b600060208201905081810360008301526120d081611d8a565b9050919050565b600060208201905081810360008301526120f081611dad565b9050919050565b6000602082019050818103600083015261211081611dd0565b9050919050565b6000602082019050818103600083015261213081611df3565b9050919050565b6000602082019050818103600083015261215081611e16565b9050919050565b6000602082019050818103600083015261217081611e39565b9050919050565b6000602082019050818103600083015261219081611e5c565b9050919050565b600060208201905081810360008301526121b081611e7f565b9050919050565b600060208201905081810360008301526121d081611ea2565b9050919050565b600060208201905081810360008301526121f081611ec5565b9050919050565b6000602082019050818103600083015261221081611ee8565b9050919050565b6000602082019050818103600083015261223081611f0b565b9050919050565b6000602082019050818103600083015261225081611f2e565b9050919050565b6000602082019050818103600083015261227081611f51565b9050919050565b6000602082019050818103600083015261229081611f74565b9050919050565b60006020820190506122ac6000830184611f97565b92915050565b60006122bc6122cd565b90506122c882826124ee565b919050565b6000604051905090565b600067ffffffffffffffff8211156122f2576122f1612626565b5b6122fb82612655565b9050602081019050919050565b600081519050919050565b600081519050919050565b600082825260208201905092915050565b600082825260208201905092915050565b600081905092915050565b600061235682612470565b915061236183612470565b9250827fffffffffffffffffffffffffffffffffffffffffffffffffffffffffffffffff0382111561239657612395612599565b5b828201905092915050565b60006123ac82612470565b91506123b783612470565b9250826123c7576123c66125c8565b5b828204905092915050565b60006123dd82612470565b91506123e883612470565b9250828210156123fb576123fa612599565b5b828203905092915050565b600061241182612450565b9050919050565b60008115159050919050565b60007fffffffff0000000000000000000000000000000000000000000000000000000082169050919050565b600073ffffffffffffffffffffffffffffffffffffffff82169050919050565b6000819050919050565b82818337600083830152505050565b60005b838110156124a757808201518184015260208101905061248c565b838111156124b6576000848401525b50505050565b600060028204905060018216806124d457607f821691505b602082108114156124e8576124e76125f7565b5b50919050565b6124f782612655565b810181811067ffffffffffffffff8211171561251657612515612626565b5b80604052505050565b600061252a82612470565b91507fffffffffffffffffffffffffffffffffffffffffffffffffffffffffffffffff82141561255d5761255c612599565b5b600182019050919050565b600061257382612470565b915061257e83612470565b92508261258e5761258d6125c8565b5b828206905092915050565b7f4e487b7100000000000000000000000000000000000000000000000000000000600052601160045260246000fd5b7f4e487b7100000000000000000000000000000000000000000000000000000000600052601260045260246000fd5b7f4e487b7100000000000000000000000000000000000000000000000000000000600052602260045260246000fd5b7f4e487b7100000000000000000000000000000000000000000000000000000000600052604160045260246000fd5b6000601f19601f8301169050919050565b7f596f7520617265206e6f7420616c6c6f77656420746f206275726e207468657360008201527f65204e4654732e00000000000000000000000000000000000000000000000000602082015250565b7f4552433732313a207472616e7366657220746f206e6f6e20455243373231526560008201527f63656976657220696d706c656d656e7465720000000000000000000000000000602082015250565b7f4552433732313a207472616e736665722066726f6d20696e636f72726563742060008201527f6f776e6572000000000000000000000000000000000000000000000000000000602082015250565b7f4552433732313a20746f6b656e20616c7265616479206d696e74656400000000600082015250565b7f4552433732313a207472616e7366657220746f20746865207a65726f2061646460008201527f7265737300000000000000000000000000000000000000000000000000000000602082015250565b7f4552433732313a20617070726f766520746f2063616c6c657200000000000000600082015250565b7f4552433732313a206f70657261746f7220717565727920666f72206e6f6e657860008201527f697374656e7420746f6b656e0000000000000000000000000000000000000000602082015250565b7f4552433732313a20617070726f76652063616c6c6572206973206e6f74206f7760008201527f6e6572206e6f7220617070726f76656420666f7220616c6c0000000000000000602082015250565b7f4552433732313a2062616c616e636520717565727920666f7220746865207a6560008201527f726f206164647265737300000000000000000000000000000000000000000000602082015250565b7f4552433732313a206f776e657220717565727920666f72206e6f6e657869737460008201527f656e7420746f6b656e0000000000000000000000000000000000000000000000602082015250565b7f4552433732313a206d696e7420746f20746865207a65726f2061646472657373600082015250565b7f4552433732313a20617070726f76656420717565727920666f72206e6f6e657860008201527f697374656e7420746f6b656e0000000000000000000000000000000000000000602082015250565b7f596f7520617265206e6f7420616c6c6f77656420746f206d696e74207468657360008201527f65204e4654732e00000000000000000000000000000000000000000000000000602082015250565b7f4552433732314d657461646174613a2055524920717565727920666f72206e6f60008201527f6e6578697374656e7420746f6b656e0000000000000000000000000000000000602082015250565b7f4552433732313a20617070726f76616c20746f2063757272656e74206f776e6560008201527f7200000000000000000000000000000000000000000000000000000000000000602082015250565b7f4552433732313a207472616e736665722063616c6c6572206973206e6f74206f60008201527f776e6572206e6f7220617070726f766564000000000000000000000000000000602082015250565b612aed81612406565b8114612af857600080fd5b50565b612b0481612418565b8114612b0f57600080fd5b50565b612b1b81612424565b8114612b2657600080fd5b50565b612b3281612470565b8114612b3d57600080fd5b5056fea26469706673582212208c92309443b6c655d70ee58676153bd4d8d533e7dc3801bf8893c0aa6965191164736f6c63430008040033",
  "immutableReferences": {},
  "source": "// SPDX-License-Identifier: MIT\n\npragma solidity ^0.8.4;\n\nimport \"@openzeppelin/contracts/token/ERC20/ERC20.sol\";\nimport \"@openzeppelin/contracts/token/ERC721/ERC721.sol\";\nimport \"@openzeppelin/contracts/access/Ownable.sol\";\n\n// No importamos el 721 por herencia para evitar conflitos entre ambos contratos\n// ya que muchas de sus funciones comparten nombre.\n\ncontract Lottery is ERC20, Ownable {\n    // ====================================\n    //          Gestin de tokens\n    // ====================================\n\n    // Direcciones de los contratos\n    address public lotteryContract;\n    address public NFTContract;\n\n    // Constructor\n    constructor() ERC20(\"Lottery\", \"LOT\") {\n        _mint(address(this), 100000);\n        NFTContract = address( new NFTTickets(address(this)));\n        lotteryContract = address(this);\n    }\n\n    // Resultado del sorteo\n    address public winnerAddress;\n    uint256 public winnerNumber;\n\n    // Importe del premio\n    uint256 public prizePool;\n\n    // Resultado de sorteos anteriores\n    struct Records {\n        uint timestamp;\n        address winner;\n        uint number;\n        uint prize;\n    }\n\n    Records [] public winners_history;\n\n    function getLotteryRecords() public view returns(Records[] memory) {\n        return winners_history;\n    }\n\n    // Precio de los tokens ERC20\n    function tokenPrice(uint256 _numtokens) internal pure returns (uint256) {\n        return _numtokens * (0.01 ether);\n    }\n\n    // Visualizacin del balance de tokens ERC220 del usuario\n    function tokensBalance(address _account) public view returns (uint256) {\n        return balanceOf(_account);\n    }\n\n    // Visualizacin del balance de tokens ERC220 del SC\n    function tokensBalanceSC() public view returns (uint256) {\n        return balanceOf(address(this));\n    }\n\n    // Visualizacin del balance de ethers del SC\n    function ethersBalanceSC() public view returns (uint256) {\n        return address(this).balance;\n    }\n\n    // Generacin de nuevos tokens ERC20\n    function _mintNewTokens(uint256 amount) public onlyOwner returns (bool) {\n        _mint(address(this), amount);\n        return true;\n    }\n\n    // Compra de tokens ERC20\n    function buyTokens(uint256 _amount) public payable {\n        // Establecimiento del coste de los token a comprar.\n        uint256 tokensCost = tokenPrice(_amount);\n        // Evaluacin del envo de Ether por parte del usuario.\n        require(msg.value >= tokensCost,\"The amount sent is not enough to buy the requested tokens.\");\n        // Obtencion del nmero de tokens disponibles\n        uint256 availableTokens = tokensBalanceSC();\n        // Evaluacin de los tokens ERC20 disponibles para su venta\n        require(availableTokens >= _amount,\"There are not enough available tokens to complete the purchase.\");\n        // Devolucin de los ethers sobrantes en la compra\n        uint256 returnValue = msg.value - tokensCost;\n        // El Smart Contract devuelve los ethers sobrantes\n        payable(msg.sender).transfer(returnValue);\n        // Enviamos los Tokens ERC20 al usuario\n        _transfer(address(this), msg.sender, _amount);\n    }\n\n    // Devolucin de tokens ERC20 al SC.\n    function returnTokens(uint256 _amount) public payable {\n        // El numero de tokens debe ser mayor a 0\n        require(_amount > 0, \"The requested amount must be greater than zero.\");\n        // El usuario debe tener la cantidad de tokens a devolver.\n        require(tokensBalance(msg.sender) >= _amount,\"Your tokens balance must be greater than the requested amount.\");\n        // El usuario transfiere los tokens al SC.\n        _transfer(msg.sender, address(this), _amount);\n        // El SC enva los ethers al usuario.\n        uint256 tokensCost = tokenPrice(_amount);\n        payable(msg.sender).transfer(tokensCost);\n    }\n\n    // ====================================\n    //        Gestin de la loteria\n    // ====================================\n\n    // Precio del boleto de lotera en tokens ERC20\n    uint256 public ticketPrice = 1;\n\n    // Array de participantes \n    address[] players;\n    \n    // Array de boletos de lotera generados\n    uint256[] generatedTickets;\n\n    // Relacin persona que compra boletos con los nmeros de los boletos comprados\n    mapping(address => uint256[]) owner_tickets;\n\n    // Relacin boleto con ganador\n    mapping(uint256 => address) ticket_owner;\n\n    // Nmeros aleatorio\n    uint256 randNonce = 0;\n\n    function getGeneratedTickets() public view returns(uint[] memory) {\n        return generatedTickets;\n    }\n\n    function getPlayers() public view returns(address[] memory) {\n        return players;\n    }\n\n    // Compra de boletos de lotera\n    function buyTickets(uint256 _amount) public {\n        uint256 totalTokensPrice = _amount * ticketPrice;\n        prizePool += _amount * tokenPrice(1);\n        require(tokensBalance(msg.sender) >= totalTokensPrice,\"Your token balance is not enough to buy this amount of Lottery tickets.\");\n        // Transferencia de tokens al SC.\n        _transfer(msg.sender, address(this), totalTokensPrice);\n        // Minteo de los tickets para el usuario\n        for (uint256 i; i < _amount; i++) {\n            // Declaramos el nmero random y el controlador nico\n            bool unique = false;\n            uint256 random;\n            // Generamos boletos hasta que este sea nico.\n            while (!unique) {\n                random = uint256(keccak256(abi.encodePacked(block.timestamp, msg.sender, randNonce))) % 100000;\n                randNonce++;\n                // comprobamos que el boleto sea nico\n                if (ticket_owner[random] == address(0)) { unique = true; }\n            }\n            // Almacenamos el jugador en el array en caso de no estar\n            if (owner_tickets[msg.sender].length == 0) { players.push(msg.sender); }\n            // Almacenamiento de los datos del boleto enlazado al usuario\n            owner_tickets[msg.sender].push(random);\n            // Almacenamiento de los datos de los boletos\n            generatedTickets.push(random);\n            // Asignacin del nmero del boleto a su Owner.\n            ticket_owner[random] = msg.sender;\n            // Creacin de un nuevo NFT para ese nmero de boleto\n            NFTTickets(NFTContract).TicketMint(msg.sender, random);\n        }\n    }\n\n    // Visualizacin de los boletos del usuario\n    function getTickets(address _address) public view returns (uint256[] memory) {\n        return owner_tickets[_address];\n    }\n\n    // Generacion del ganador de la loteria (not onlyOwner)\n    function getLotteryWinner() public {\n        // Generamos un nmero aleatorio entre el total de tickets comprados\n        uint256 totalTickets = generatedTickets.length;\n        // Verificamos si se ha vendido al menos 1 boleto\n        require(totalTickets > 0, \"There are not ticket bought.\");\n        // Eleccin aleatoria entre 0 y el nmero total de boletos comprados\n        uint256 random = uint256(uint256(keccak256(abi.encodePacked(block.timestamp))) % totalTickets);\n        // Seleccin del nmero aleatorio\n        winnerNumber = generatedTickets[random];\n        // Direccin del ganador\n        winnerAddress = ticket_owner[winnerNumber];\n        // Envo del 95% de la recaudacin de la lotera al ganador\n        uint256 prize = (prizePool / 100) * 95;\n        payable(winnerAddress).transfer(prize);\n        // Envo del beneficio al Owner\n        uint256 fee = prizePool - prize;\n        payable(owner()).transfer(fee);\n        // Guardamos la info del ganador\n        Records memory current_lottery = Records(block.timestamp, winnerAddress, winnerNumber, prizePool);\n        winners_history.push(current_lottery);\n        // Vaciado de la PoolPrize\n        prizePool = 0;\n        //delete owner_tickets (mapping)\n        for (uint i=0; i<players.length; i++) {\n            delete owner_tickets[players[i]];\n        }\n        //delete ticket_owner (mapping) y quema de los NFTs\n        for (uint x=0; x<generatedTickets.length; x++) {\n            ticket_owner[generatedTickets[x]] = address(0);\n            NFTTickets(NFTContract).ticketBurn(generatedTickets[x]);\n        }\n        //Delete tickets and players array\n        delete generatedTickets;\n        delete players;\n    }\n}\n\n// Smart Contract de NFTs\ncontract NFTTickets is ERC721 {\n    \n    // Datos relevantes del propietario\n    struct Contract {\n        address lotteryContractAddress;\n        address NFTTicketsContractAddress;\n    }\n\n    Contract public contractData;\n\n    constructor(address _lotteryContract) ERC721(\"Lottery Tickets\", \"LTICK\") {\n        contractData = Contract(_lotteryContract, address(this));\n    }\n\n    // Creacin de los NFTs\n    function TicketMint(address _owner, uint256 _ticket) public {\n        // Esta funcin al ser llamada en un contrato declarado SIN HERENCIA\n        // debe ser pblica, no sirve como internal.\n        // Si es el contrato principal el que llama a esta funcin y la direccin de ESTE contrato\n        // es la direccin del contrato NFTTicket del owner permitimos el mint\n        require((msg.sender == contractData.lotteryContractAddress),\"You are not allowed to mint these NFTs.\");\n        _safeMint(_owner, _ticket);\n    }\n\n    // Quemado de los NFTs\n    function ticketBurn(uint256 _ticket) public {\n        require((msg.sender == contractData.lotteryContractAddress),\"You are not allowed to burn these NFTs.\");\n        _burn(_ticket);\n    }\n}\n",
  "sourcePath": "/Users/gush/Documents/Desarrollo/Web3/Formacion/Proyectos/BCLottery/src/contracts/lottery.sol",
  "compiler": {
    "name": "solc",
    "version": "0.8.4+commit.c7e474f2.Emscripten.clang"
  },
  "schemaVersion": "3.4.8",
  "updatedAt": "2022-08-21T22:27:20.579Z",
  "devdoc": {
    "kind": "dev",
    "methods": {
      "approve(address,uint256)": {
        "details": "See {IERC721-approve}."
      },
      "balanceOf(address)": {
        "details": "See {IERC721-balanceOf}."
      },
      "getApproved(uint256)": {
        "details": "See {IERC721-getApproved}."
      },
      "isApprovedForAll(address,address)": {
        "details": "See {IERC721-isApprovedForAll}."
      },
      "name()": {
        "details": "See {IERC721Metadata-name}."
      },
      "ownerOf(uint256)": {
        "details": "See {IERC721-ownerOf}."
      },
      "safeTransferFrom(address,address,uint256)": {
        "details": "See {IERC721-safeTransferFrom}."
      },
      "safeTransferFrom(address,address,uint256,bytes)": {
        "details": "See {IERC721-safeTransferFrom}."
      },
      "setApprovalForAll(address,bool)": {
        "details": "See {IERC721-setApprovalForAll}."
      },
      "supportsInterface(bytes4)": {
        "details": "See {IERC165-supportsInterface}."
      },
      "symbol()": {
        "details": "See {IERC721Metadata-symbol}."
      },
      "tokenURI(uint256)": {
        "details": "See {IERC721Metadata-tokenURI}."
      },
      "transferFrom(address,address,uint256)": {
        "details": "See {IERC721-transferFrom}."
      }
    },
    "version": 1
  },
  "userdoc": {
    "kind": "user",
    "methods": {},
    "version": 1
  }
}